{
  "contractName": "SrvExchange",
  "abi": [
    {
      "constant": true,
      "inputs": [],
      "name": "getPublisher",
      "outputs": [
        {
          "name": "publisher_vid",
          "type": "address"
        },
        {
          "name": "publisher_zid",
          "type": "string"
        },
        {
          "name": "publisher_status",
          "type": "uint256"
        },
        {
          "name": "publisher_balance",
          "type": "uint256"
        },
        {
          "name": "publisher_txs",
          "type": "string"
        }
      ],
      "payable": false,
      "stateMutability": "view",
      "type": "function"
    },
    {
      "constant": true,
      "inputs": [],
      "name": "getSubscriber",
      "outputs": [
        {
          "name": "subscriber_vid",
          "type": "address"
        },
        {
          "name": "subscriber_zid",
          "type": "string"
        },
        {
          "name": "subscriber_status",
          "type": "uint256"
        },
        {
          "name": "subscriber_balance",
          "type": "uint256"
        },
        {
          "name": "subscriber_txs",
          "type": "string"
        }
      ],
      "payable": false,
      "stateMutability": "view",
      "type": "function"
    },
    {
      "constant": false,
      "inputs": [],
      "name": "initBroker",
      "outputs": [
        {
          "name": "",
          "type": "bool"
        }
      ],
      "payable": true,
      "stateMutability": "payable",
      "type": "function"
    },
    {
      "constant": false,
      "inputs": [
        {
          "name": "addr_node",
          "type": "address"
        },
        {
          "name": "zone_id",
          "type": "string"
        },
        {
          "name": "txs",
          "type": "string"
        }
      ],
      "name": "setPublisher",
      "outputs": [
        {
          "name": "",
          "type": "bool"
        }
      ],
      "payable": false,
      "stateMutability": "nonpayable",
      "type": "function"
    },
    {
      "constant": false,
      "inputs": [
        {
          "name": "addr_node",
          "type": "address"
        },
        {
          "name": "zone_id",
          "type": "string"
        },
        {
          "name": "txs",
          "type": "string"
        }
      ],
      "name": "setSubscriber",
      "outputs": [
        {
          "name": "",
          "type": "bool"
        }
      ],
      "payable": false,
      "stateMutability": "nonpayable",
      "type": "function"
    },
    {
      "constant": false,
      "inputs": [
        {
          "name": "addr_node",
          "type": "address"
        },
        {
          "name": "zone_id",
          "type": "string"
        }
      ],
      "name": "updatePublisher",
      "outputs": [
        {
          "name": "",
          "type": "bool"
        }
      ],
      "payable": false,
      "stateMutability": "nonpayable",
      "type": "function"
    },
    {
      "constant": false,
      "inputs": [
        {
          "name": "addr_node",
          "type": "address"
        },
        {
          "name": "zone_id",
          "type": "string"
        }
      ],
      "name": "updateSubscriber",
      "outputs": [
        {
          "name": "",
          "type": "bool"
        }
      ],
      "payable": false,
      "stateMutability": "nonpayable",
      "type": "function"
    },
    {
      "constant": false,
      "inputs": [],
      "name": "publisher_commit",
      "outputs": [
        {
          "name": "",
          "type": "bool"
        }
      ],
      "payable": false,
      "stateMutability": "nonpayable",
      "type": "function"
    },
    {
      "constant": false,
      "inputs": [
        {
          "name": "deposit_balance",
          "type": "uint256"
        }
      ],
      "name": "subscriber_commit",
      "outputs": [
        {
          "name": "",
          "type": "bool"
        }
      ],
      "payable": false,
      "stateMutability": "nonpayable",
      "type": "function"
    },
    {
      "constant": false,
      "inputs": [],
      "name": "service_payment",
      "outputs": [
        {
          "name": "",
          "type": "bool"
        }
      ],
      "payable": false,
      "stateMutability": "nonpayable",
      "type": "function"
    }
  ],
  "bytecode": "0x6060604052341561000f57600080fd5b61122e8061001e6000396000f3006060604052600436106100a4576000357c0100000000000000000000000000000000000000000000000000000000900463ffffffff1680631b069b86146100a95780632b6f6ad7146100d65780632c797d5c146100f8578063402d8d51146101cf57806365c6b29b146101fc5780637504e53214610237578063a8cc2e8f1461030e578063aeddc49f146103a2578063b28dd046146104dd578063dbf4ab4e14610571575b600080fd5b34156100b457600080fd5b6100bc6106ac565b604051808215151515815260200191505060405180910390f35b6100de610747565b604051808215151515815260200191505060405180910390f35b341561010357600080fd5b6101b5600480803573ffffffffffffffffffffffffffffffffffffffff1690602001909190803590602001908201803590602001908080601f0160208091040260200160405190810160405280939291908181526020018383808284378201915050505050509190803590602001908201803590602001908080601f01602080910402602001604051908101604052809392919081815260200183838082843782019150505050505091905050610912565b604051808215151515815260200191505060405180910390f35b34156101da57600080fd5b6101e26109d6565b604051808215151515815260200191505060405180910390f35b341561020757600080fd5b61021d6004808035906020019091905050610b14565b604051808215151515815260200191505060405180910390f35b341561024257600080fd5b6102f4600480803573ffffffffffffffffffffffffffffffffffffffff1690602001909190803590602001908201803590602001908080601f0160208091040260200160405190810160405280939291908181526020018383808284378201915050505050509190803590602001908201803590602001908080601f01602080910402602001604051908101604052809392919081815260200183838082843782019150505050505091905050610bbc565b604051808215151515815260200191505060405180910390f35b341561031957600080fd5b610388600480803573ffffffffffffffffffffffffffffffffffffffff1690602001909190803590602001908201803590602001908080601f01602080910402602001604051908101604052809392919081815260200183838082843782019150505050505091905050610c82565b604051808215151515815260200191505060405180910390f35b34156103ad57600080fd5b6103b5610d51565b604051808673ffffffffffffffffffffffffffffffffffffffff1673ffffffffffffffffffffffffffffffffffffffff1681526020018060200185815260200184815260200180602001838103835287818151815260200191508051906020019080838360005b8381101561043757808201518184015260208101905061041c565b50505050905090810190601f1680156104645780820380516001836020036101000a031916815260200191505b50838103825284818151815260200191508051906020019080838360005b8381101561049d578082015181840152602081019050610482565b50505050905090810190601f1680156104ca5780820380516001836020036101000a031916815260200191505b5097505050505050505060405180910390f35b34156104e857600080fd5b610557600480803573ffffffffffffffffffffffffffffffffffffffff1690602001909190803590602001908201803590602001908080601f01602080910402602001604051908101604052809392919081815260200183838082843782019150505050505091905050610ee5565b604051808215151515815260200191505060405180910390f35b341561057c57600080fd5b610584610fb5565b604051808673ffffffffffffffffffffffffffffffffffffffff1673ffffffffffffffffffffffffffffffffffffffff1681526020018060200185815260200184815260200180602001838103835287818151815260200191508051906020019080838360005b838110156106065780820151818401526020810190506105eb565b50505050905090810190601f1680156106335780820380516001836020036101000a031916815260200191505b50838103825284818151815260200191508051906020019080838360005b8381101561066c578082015181840152602081019050610651565b50505050905090810190601f1680156106995780820380516001836020036101000a031916815260200191505b5097505050505050505060405180910390f35b60003373ffffffffffffffffffffffffffffffffffffffff16600060010160009054906101000a900473ffffffffffffffffffffffffffffffffffffffff1673ffffffffffffffffffffffffffffffffffffffff1614801561071357506001600060030154145b1561073f5760016000800160008282540192505081905550600260006003018190555060019050610744565b600090505b90565b60003373ffffffffffffffffffffffffffffffffffffffff16730217f674800617172170f8e09c008b5913b9bccc73ffffffffffffffffffffffffffffffffffffffff16141561090a576001600080018190555060008060010160006101000a81548173ffffffffffffffffffffffffffffffffffffffff021916908373ffffffffffffffffffffffffffffffffffffffff160217905550602060405190810160405280600081525060006002019080519060200190610808929190611149565b506000806003018190555060008060040181905550602060405190810160405280600081525060006005019080519060200190610846929190611149565b5060016006600001819055506000600660010160006101000a81548173ffffffffffffffffffffffffffffffffffffffff021916908373ffffffffffffffffffffffffffffffffffffffff1602179055506020604051908101604052806000815250600660020190805190602001906108c0929190611149565b5060006006600301819055506000600660040181905550602060405190810160405280600081525060066005019080519060200190610900929190611149565b506001905061090f565b600090505b90565b60008060006003015414156109ca576001600080016000828254019250508190555083600060010160006101000a81548173ffffffffffffffffffffffffffffffffffffffff021916908373ffffffffffffffffffffffffffffffffffffffff1602179055508260006002019080519060200190610991929190611149565b506000806004018190555081600060050190805190602001906109b5929190611149565b506001600060030181905550600190506109cf565b600090505b9392505050565b600060026000600301541480156109f257506002600660030154145b15610b0c573373ffffffffffffffffffffffffffffffffffffffff16600060010160009054906101000a900473ffffffffffffffffffffffffffffffffffffffff1673ffffffffffffffffffffffffffffffffffffffff161480610aa657503373ffffffffffffffffffffffffffffffffffffffff16600660010160009054906101000a900473ffffffffffffffffffffffffffffffffffffffff1673ffffffffffffffffffffffffffffffffffffffff16145b15610b0b5760016000800160008282540192505081905550600660040154600060040181905550600360006003018190555060016006600001600082825401925050819055506000600660040181905550600360066003018190555060019050610b11565b5b600090505b90565b60003373ffffffffffffffffffffffffffffffffffffffff16600660010160009054906101000a900473ffffffffffffffffffffffffffffffffffffffff1673ffffffffffffffffffffffffffffffffffffffff16148015610b7b57506001600660030154145b15610bb257816006600401819055506001600660000160008282540192505081905550600260066003018190555060019050610bb7565b600090505b919050565b6000806006600301541415610c7657600160066000016000828254019250508190555083600660010160006101000a81548173ffffffffffffffffffffffffffffffffffffffff021916908373ffffffffffffffffffffffffffffffffffffffff1602179055508260066002019080519060200190610c3c929190611149565b5060006006600401819055508160066005019080519060200190610c61929190611149565b50600160066003018190555060019050610c7b565b600090505b9392505050565b60003373ffffffffffffffffffffffffffffffffffffffff16730217f674800617172170f8e09c008b5913b9bccc73ffffffffffffffffffffffffffffffffffffffff161415610d46576001600080016000828254019250508190555082600060010160006101000a81548173ffffffffffffffffffffffffffffffffffffffff021916908373ffffffffffffffffffffffffffffffffffffffff1602179055508160006002019080519060200190610d3c929190611149565b5060019050610d4b565b600090505b92915050565b6000610d5b6111c9565b600080610d666111c9565b600660010160009054906101000a900473ffffffffffffffffffffffffffffffffffffffff16945060066002018054600181600116156101000203166002900480601f016020809104026020016040519081016040528092919081815260200182805460018160011615610100020316600290048015610e275780601f10610dfc57610100808354040283529160200191610e27565b820191906000526020600020905b815481529060010190602001808311610e0a57829003601f168201915b505050505093506006600301549250600660040154915060066005018054600181600116156101000203166002900480601f016020809104026020016040519081016040528092919081815260200182805460018160011615610100020316600290048015610ed75780601f10610eac57610100808354040283529160200191610ed7565b820191906000526020600020905b815481529060010190602001808311610eba57829003601f168201915b505050505090509091929394565b60003373ffffffffffffffffffffffffffffffffffffffff16730217f674800617172170f8e09c008b5913b9bccc73ffffffffffffffffffffffffffffffffffffffff161415610faa57600160066000016000828254019250508190555082600660010160006101000a81548173ffffffffffffffffffffffffffffffffffffffff021916908373ffffffffffffffffffffffffffffffffffffffff1602179055508160066002019080519060200190610fa0929190611149565b5060019050610faf565b600090505b92915050565b6000610fbf6111c9565b600080610fca6111c9565b600060010160009054906101000a900473ffffffffffffffffffffffffffffffffffffffff16945060006002018054600181600116156101000203166002900480601f01602080910402602001604051908101604052809291908181526020018280546001816001161561010002031660029004801561108b5780601f106110605761010080835404028352916020019161108b565b820191906000526020600020905b81548152906001019060200180831161106e57829003601f168201915b505050505093506000600301549250600060040154915060006005018054600181600116156101000203166002900480601f01602080910402602001604051908101604052809291908181526020018280546001816001161561010002031660029004801561113b5780601f106111105761010080835404028352916020019161113b565b820191906000526020600020905b81548152906001019060200180831161111e57829003601f168201915b505050505090509091929394565b828054600181600116156101000203166002900490600052602060002090601f016020900481019282601f1061118a57805160ff19168380011785556111b8565b828001600101855582156111b8579182015b828111156111b757825182559160200191906001019061119c565b5b5090506111c591906111dd565b5090565b602060405190810160405280600081525090565b6111ff91905b808211156111fb5760008160009055506001016111e3565b5090565b905600a165627a7a72305820f1a5dbde69953366991062a46be281f7c7b2c4423a736c8441fc70bab17e6d680029",
  "source": "pragma solidity ^0.4.18;\n\ncontract SrvExchange {\n\n\t/*\n\t\tDefine struct to represent service publisher.\n\t*/\n\tstruct SrvPublisher {\n\t\tuint uid;\t\t\t\t// auto incremental number.\n\t\taddress vid;\t\t\t// publisher's Virtual ID, we use account address.\n\t\tstring zid;\t\t\t\t// publisher's Zone-ID, we use intra-ledger network id\n\t\tuint status;\t\t\t// process status: 0-Delegation; 1-Configuration; 2-Commitment; 3-Payment\n\t\tuint balance;\t\t\t// publisher's security balance to support token or currency transfer.\n\t\tstring txs;\t\t\t// seller's transactions list that records tx_ref of each tx. \n\t}\n\n\t/*\n\t\tDefine struct to represent service subscriber.\n\t*/\n\tstruct SrvSubscriber {\n\t\tuint uid;\t\t\t\t// auto incremental number.\n\t\taddress vid;\t\t\t// subscriber's Virtual ID, we use account address.\n\t\tstring zid;\t\t\t\t// subscriber's Zone-ID, we use intra-ledger network id\n\t\tuint status;\t\t\t// process status: 0-Delegation; 1-Configuration; 2-Commitment; 3-Payment\n\t\tuint balance;\t\t\t// subscriber's security balance to support token or currency transfer.\n\t\tstring txs;\t\t\t// buyer's transactions listthat records tx_ref of each tx.\n\t}\n\n\n\t// Global state variables\n\taddress private constant supervisor = 0x0217f674800617172170f8e09c008b5913b9bccc;\n\t\n\t// initialize struct object \n\tSrvPublisher private publisher;\n\tSrvSubscriber private subscriber;\n\n\t//====================================== service exchange procedures =========================================\n\t\n\t/* \n\t\tfunction: query registered Publisher information\n\t*/\n\tfunction getPublisher() public constant returns (\taddress publisher_vid, \n\t\t\t\t\t\t\t\t\t\t\t\t\t\tstring publisher_zid, \n\t\t\t\t\t\t\t\t\t\t\t\t\t\tuint publisher_status,\n\t\t\t\t\t\t\t\t\t\t\t\t\t\tuint publisher_balance, \n\t\t\t\t\t\t\t\t\t\t\t\t\t\tstring publisher_txs ) \n\t\t\t\t\t\t\t\t\t\t\t\t\t{\t\t\t\n\n\t\t\tpublisher_vid = publisher.vid;\n\t\t\tpublisher_zid = publisher.zid; \n\t\t\tpublisher_status = publisher.status;\n\t\t\tpublisher_balance = publisher.balance;\n\t\t\tpublisher_txs = publisher.txs;\n\t}\n\n\t/* \n\t\tfunction: query registered Subscriber information\n\t*/\n\tfunction getSubscriber() public constant returns (\taddress subscriber_vid, \n\t\t\t\t\t\t\t\t\t\t\t\t\t\tstring subscriber_zid, \n\t\t\t\t\t\t\t\t\t\t\t\t\t\tuint subscriber_status,\n\t\t\t\t\t\t\t\t\t\t\t\t\t\tuint subscriber_balance, \n\t\t\t\t\t\t\t\t\t\t\t\t\t\tstring subscriber_txs ) \n\t\t\t\t\t\t\t\t\t\t\t\t\t{\t\t\t\n\n\t\t\tsubscriber_vid = subscriber.vid;\n\t\t\tsubscriber_zid = subscriber.zid; \n\t\t\tsubscriber_status = subscriber.status;\n\t\t\tsubscriber_balance = subscriber.balance;\n\t\t\tsubscriber_txs = subscriber.txs;\n\t}\n\n\t/* \n\t\tfunction: initialize broker info, reset all data of Publisher and Subscriber\n\t*/\n\tfunction initBroker() public payable returns (bool) {\n\t\tif( supervisor == msg.sender) {\n\n\t\t\t// initialize publisher\n\t\t\tpublisher.uid = 1;\n\t\t\tpublisher.vid = address(0);\n\t\t\tpublisher.zid = '';\n\t\t\tpublisher.status = 0;\n\t\t\tpublisher.balance = 0;\n\t\t\tpublisher.txs = '';\n\n\t\t\t// initialize subscriber\n\t\t\tsubscriber.uid = 1;\n\t\t\tsubscriber.vid = address(0);\n\t\t\tsubscriber.zid = '';\n\t\t\tsubscriber.status = 0;\n\t\t\tsubscriber.balance = 0;\n\t\t\tsubscriber.txs = '';\n\n\t\t\treturn true;\n\t\t}\n\t\treturn false;\n\t}\n\n\t/*\n\tFunction: Set publisher info given delegation request [vid, zid, txs].\n\t*/\n\tfunction setPublisher(address addr_node, string zone_id, string txs) public returns (bool) {\n\t\tif( publisher.status == 0) {\n\n\t\t\t// update publisher data\n\t\t\tpublisher.uid += 1;\n\t\t\tpublisher.vid = addr_node;\n\t\t\tpublisher.zid = zone_id;\n\t\t\tpublisher.balance = 0;\n\t\t\tpublisher.txs = txs;\n\n\t\t\t// set publisher as Configuration status\n\t\t\tpublisher.status = 1;\n\n\t\t\treturn true;\n\t\t}\n\t\treturn false;\n\t}\n\n\t/*\n\tFunction: Set subscriber info given delegation request [vid, zid, txs].\n\t*/\n\tfunction setSubscriber(address addr_node, string zone_id, string txs) public returns (bool) {\n\t\tif( subscriber.status == 0) {\n\n\t\t\t// update subscriber data\n\t\t\tsubscriber.uid += 1;\n\t\t\tsubscriber.vid = addr_node;\n\t\t\tsubscriber.zid = zone_id;\n\t\t\tsubscriber.balance = 0;\n\t\t\tsubscriber.txs = txs;\n\n\t\t\t// set subscriber as Configuration status\n\t\t\tsubscriber.status = 1;\n\n\t\t\treturn true;\n\t\t}\n\t\treturn false;\n\t}\n\n\t/*\n\tFunction: Update publisher info given [vid, zid]. \n\t\t\t\tThis is used for broker change to handle crash faults\n\t*/\n\tfunction updatePublisher(address addr_node, string zone_id) public returns (bool) {\n\t\tif(supervisor == msg.sender) {\n\n\t\t\t// update publisher info\n\t\t\tpublisher.uid += 1;\n\t\t\tpublisher.vid = addr_node;\n\t\t\tpublisher.zid = zone_id;\n\n\t\t\treturn true;\n\t\t}\n\t\treturn false;\n\t}\n\n\t/*\n\tFunction: Update subscriber info given [vid, zid]. \n\t\t\t\tThis is used for broker change to handle crash faults\n\t*/\n\tfunction updateSubscriber(address addr_node, string zone_id) public returns (bool) {\n\t\tif(supervisor == msg.sender) {\n\n\t\t\t// update publisher info\n\t\t\tsubscriber.uid += 1;\n\t\t\tsubscriber.vid = addr_node;\n\t\t\tsubscriber.zid = zone_id;\n\n\t\t\treturn true;\n\t\t}\n\t\treturn false;\n\t}\t\t\n\n\t/*\n\tFunction: set publisher as committed.\n\t*/\n\tfunction publisher_commit() public returns (bool) {\n\t\t//check if node is valid provider and current state is Registered\n\t\tif( (publisher.vid == msg.sender) && (publisher.status == 1) ) {\n\n\t\t\t// set publisher as Commitment\n\t\t\tpublisher.uid += 1;\n\t\t\tpublisher.status = 2;\n\n\t\t\treturn true;\n\t\t}\n\t\treturn false;\n\t}\t\n\n\t/*\n\tFunction: set subscriber as committed.\n\t\t\t\tdeposit_balance: is calculated from txs by buyer\n\t*/\n\tfunction subscriber_commit(uint deposit_balance) public returns (bool) {\n\t\t//check if node is valid provider and current state is Registered\n\t\tif( (subscriber.vid == msg.sender) && (subscriber.status == 1) ) {\n\t\t\t// deposit token or currency to security balance\n\t\t\tsubscriber.balance = deposit_balance;\n\n\t\t\t// set subscriber as Commitment\n\t\t\tsubscriber.uid += 1;\n\t\t\tsubscriber.status = 2;\n\n\t\t\treturn true;\n\t\t}\n\t\treturn false;\n\t}\n\n\t/*\n\tFunction: service payment to transfer balance and re-initialize state.\n\t*/\n\tfunction service_payment() public returns (bool) {\n\t\t//check if both publisher and subscriber are Commitment\n\t\tif( (publisher.status == 2) && (subscriber.status == 2) ) {\n\n\t\t\tif( (publisher.vid == msg.sender) || (subscriber.vid == msg.sender) ) {\n\t\t\t\t// ---------- transfer balance -----------------\n\t\t\t\t// 1) add balance to publisher's account\n\t\t\t\tpublisher.uid += 1;\n\t\t\t\tpublisher.balance = subscriber.balance;\n\t\t\t\tpublisher.status = 3;\n\n\t\t\t\t// 2) substract balance from subscriber's account\n\t\t\t\tsubscriber.uid += 1;\n\t\t\t\tsubscriber.balance = 0;\n\t\t\t\tsubscriber.status = 3;\n\n\t\t\t\treturn true;\n\t\t\t}\n\n\t\t}\n\t\treturn false;\n\t}\t\n\n}\n",
  "sourcePath": "/home/samuel/Desktop/Github/Research/Security/py_dev/Federated_DDM/contract_dev/contracts/SrvExchange.sol",
  "compiler": {
    "name": "solc",
    "version": "0.4.21+commit.dfe3193c.Emscripten.clang"
  },
  "schemaVersion": "2.0.0",
  "updatedAt": "2021-03-17T17:57:04.463Z"
}