{
  "contractName": "CapACToken",
  "abi": [
    {
      "constant": false,
      "inputs": [
        {
          "name": "recipient",
          "type": "address"
        },
        {
          "name": "isValid",
          "type": "bool"
        }
      ],
      "name": "setCapToken_isValid",
      "outputs": [
        {
          "name": "",
          "type": "bool"
        }
      ],
      "payable": false,
      "stateMutability": "nonpayable",
      "type": "function"
    },
    {
      "constant": false,
      "inputs": [
        {
          "name": "recipient",
          "type": "address"
        },
        {
          "name": "delegatee",
          "type": "address"
        }
      ],
      "name": "setCapToken_revokeDelegate",
      "outputs": [
        {
          "name": "",
          "type": "bool"
        }
      ],
      "payable": false,
      "stateMutability": "nonpayable",
      "type": "function"
    },
    {
      "constant": false,
      "inputs": [
        {
          "name": "recipient",
          "type": "address"
        },
        {
          "name": "delegatee",
          "type": "address"
        }
      ],
      "name": "setCapToken_delegatee",
      "outputs": [
        {
          "name": "",
          "type": "bool"
        }
      ],
      "payable": false,
      "stateMutability": "nonpayable",
      "type": "function"
    },
    {
      "constant": false,
      "inputs": [
        {
          "name": "recipient",
          "type": "address"
        },
        {
          "name": "accessright",
          "type": "string"
        }
      ],
      "name": "setCapToken_authorization",
      "outputs": [
        {
          "name": "",
          "type": "bool"
        }
      ],
      "payable": false,
      "stateMutability": "nonpayable",
      "type": "function"
    },
    {
      "constant": false,
      "inputs": [
        {
          "name": "recipient",
          "type": "address"
        },
        {
          "name": "issueddate",
          "type": "uint256"
        },
        {
          "name": "expireddate",
          "type": "uint256"
        }
      ],
      "name": "setCapToken_expireddate",
      "outputs": [
        {
          "name": "",
          "type": "bool"
        }
      ],
      "payable": false,
      "stateMutability": "nonpayable",
      "type": "function"
    },
    {
      "constant": true,
      "inputs": [
        {
          "name": "recipient",
          "type": "address"
        }
      ],
      "name": "getAuthorization",
      "outputs": [
        {
          "name": "",
          "type": "uint256"
        },
        {
          "name": "",
          "type": "string"
        }
      ],
      "payable": false,
      "stateMutability": "view",
      "type": "function"
    },
    {
      "constant": true,
      "inputs": [
        {
          "name": "recipient",
          "type": "address"
        }
      ],
      "name": "getDelegateStatus",
      "outputs": [
        {
          "name": "",
          "type": "uint256"
        },
        {
          "name": "",
          "type": "address[5]"
        },
        {
          "name": "",
          "type": "uint256"
        }
      ],
      "payable": false,
      "stateMutability": "view",
      "type": "function"
    },
    {
      "constant": true,
      "inputs": [
        {
          "name": "recipient",
          "type": "address"
        }
      ],
      "name": "getCapTokenStatus",
      "outputs": [
        {
          "name": "",
          "type": "uint256"
        },
        {
          "name": "",
          "type": "bool"
        },
        {
          "name": "",
          "type": "bool"
        },
        {
          "name": "",
          "type": "uint256"
        },
        {
          "name": "",
          "type": "uint256"
        }
      ],
      "payable": false,
      "stateMutability": "view",
      "type": "function"
    },
    {
      "constant": false,
      "inputs": [
        {
          "name": "recipient",
          "type": "address"
        },
        {
          "name": "depth",
          "type": "uint256"
        }
      ],
      "name": "setCapToken_delegateDepth",
      "outputs": [
        {
          "name": "",
          "type": "bool"
        }
      ],
      "payable": false,
      "stateMutability": "nonpayable",
      "type": "function"
    },
    {
      "constant": false,
      "inputs": [
        {
          "name": "recipient",
          "type": "address"
        }
      ],
      "name": "initCapToken",
      "outputs": [
        {
          "name": "",
          "type": "bool"
        }
      ],
      "payable": false,
      "stateMutability": "nonpayable",
      "type": "function"
    },
    {
      "anonymous": false,
      "inputs": [
        {
          "indexed": true,
          "name": "_from",
          "type": "address"
        },
        {
          "indexed": false,
          "name": "_value",
          "type": "uint256"
        }
      ],
      "name": "OnValueChanged",
      "type": "event"
    }
  ],
  "bytecode": "0x6060604052341561000f57600080fd5b611a3f8061001e6000396000f3006060604052600436106100a4576000357c0100000000000000000000000000000000000000000000000000000000900463ffffffff16806318b26bec146100a95780633776f1cd1461010557806340e300a31461017557806344610837146101e5578063689f2556146102795780639f64bd48146102dc578063ab64027f14610395578063aefd6e0314610418578063ca0057b714610489578063cc084eb3146104e3575b600080fd5b34156100b457600080fd5b6100eb600480803573ffffffffffffffffffffffffffffffffffffffff169060200190919080351515906020019091905050610534565b604051808215151515815260200191505060405180910390f35b341561011057600080fd5b61015b600480803573ffffffffffffffffffffffffffffffffffffffff1690602001909190803573ffffffffffffffffffffffffffffffffffffffff169060200190919050506106ca565b604051808215151515815260200191505060405180910390f35b341561018057600080fd5b6101cb600480803573ffffffffffffffffffffffffffffffffffffffff1690602001909190803573ffffffffffffffffffffffffffffffffffffffff169060200190919050506109e9565b604051808215151515815260200191505060405180910390f35b34156101f057600080fd5b61025f600480803573ffffffffffffffffffffffffffffffffffffffff1690602001909190803590602001908201803590602001908080601f01602080910402602001604051908101604052809392919081815260200183838082843782019150505050505091905050610d08565b604051808215151515815260200191505060405180910390f35b341561028457600080fd5b6102c2600480803573ffffffffffffffffffffffffffffffffffffffff16906020019091908035906020019091908035906020019091905050610e9b565b604051808215151515815260200191505060405180910390f35b34156102e757600080fd5b610313600480803573ffffffffffffffffffffffffffffffffffffffff16906020019091905050611065565b6040518083815260200180602001828103825283818151815260200191508051906020019080838360005b8381101561035957808201518184015260208101905061033e565b50505050905090810190601f1680156103865780820380516001836020036101000a031916815260200191505b50935050505060405180910390f35b34156103a057600080fd5b6103cc600480803573ffffffffffffffffffffffffffffffffffffffff16906020019091905050611197565b6040518084815260200183600560200280838360005b838110156103fd5780820151818401526020810190506103e2565b50505050905001828152602001935050505060405180910390f35b341561042357600080fd5b61044f600480803573ffffffffffffffffffffffffffffffffffffffff169060200190919050506112ea565b6040518086815260200185151515158152602001841515151581526020018381526020018281526020019550505050505060405180910390f35b341561049457600080fd5b6104c9600480803573ffffffffffffffffffffffffffffffffffffffff16906020019091908035906020019091905050611469565b604051808215151515815260200191505060405180910390f35b34156104ee57600080fd5b61051a600480803573ffffffffffffffffffffffffffffffffffffffff16906020019091905050611642565b604051808215151515815260200191505060405180910390f35b60003373ffffffffffffffffffffffffffffffffffffffff16733d40fad73c91aed74ffbc1f09f4cde7cce53367173ffffffffffffffffffffffffffffffffffffffff1614156106bf5760016000808573ffffffffffffffffffffffffffffffffffffffff1673ffffffffffffffffffffffffffffffffffffffff16815260200190815260200160002060000160008282540192505081905550816000808573ffffffffffffffffffffffffffffffffffffffff1673ffffffffffffffffffffffffffffffffffffffff16815260200190815260200160002060010160016101000a81548160ff0219169083151502179055508273ffffffffffffffffffffffffffffffffffffffff167f65dce515c55eb8d94c3ec733006907bb1a555ef5fb2ab7227019830d4f90a2596000808673ffffffffffffffffffffffffffffffffffffffff1673ffffffffffffffffffffffffffffffffffffffff168152602001908152602001600020600001546040518082815260200191505060405180910390a2600190506106c4565b600090505b92915050565b60008060008091503373ffffffffffffffffffffffffffffffffffffffff16733d40fad73c91aed74ffbc1f09f4cde7cce53367173ffffffffffffffffffffffffffffffffffffffff1614156109de5760009050600090505b6000808673ffffffffffffffffffffffffffffffffffffffff1673ffffffffffffffffffffffffffffffffffffffff16815260200190815260200160002060070154811015610821578373ffffffffffffffffffffffffffffffffffffffff166000808773ffffffffffffffffffffffffffffffffffffffff1673ffffffffffffffffffffffffffffffffffffffff168152602001908152602001600020600201826005811015156107d157fe5b0160009054906101000a900473ffffffffffffffffffffffffffffffffffffffff1673ffffffffffffffffffffffffffffffffffffffff16141561081457610821565b8080600101915050610723565b6000808673ffffffffffffffffffffffffffffffffffffffff1673ffffffffffffffffffffffffffffffffffffffff168152602001908152602001600020600701548110156109dd5760016000808773ffffffffffffffffffffffffffffffffffffffff1673ffffffffffffffffffffffffffffffffffffffff1681526020019081526020016000206000016000828254019250508190555060008060008773ffffffffffffffffffffffffffffffffffffffff1673ffffffffffffffffffffffffffffffffffffffff1681526020019081526020016000206002018260058110151561090a57fe5b0160006101000a81548173ffffffffffffffffffffffffffffffffffffffff021916908373ffffffffffffffffffffffffffffffffffffffff1602179055508473ffffffffffffffffffffffffffffffffffffffff167f65dce515c55eb8d94c3ec733006907bb1a555ef5fb2ab7227019830d4f90a2596000808873ffffffffffffffffffffffffffffffffffffffff1673ffffffffffffffffffffffffffffffffffffffff168152602001908152602001600020600001546040518082815260200191505060405180910390a2600191505b5b819250505092915050565b60008060008091503373ffffffffffffffffffffffffffffffffffffffff16733d40fad73c91aed74ffbc1f09f4cde7cce53367173ffffffffffffffffffffffffffffffffffffffff161415610cfd5760009050600090505b6000808673ffffffffffffffffffffffffffffffffffffffff1673ffffffffffffffffffffffffffffffffffffffff16815260200190815260200160002060070154811015610b4157600073ffffffffffffffffffffffffffffffffffffffff166000808773ffffffffffffffffffffffffffffffffffffffff1673ffffffffffffffffffffffffffffffffffffffff16815260200190815260200160002060020182600581101515610af157fe5b0160009054906101000a900473ffffffffffffffffffffffffffffffffffffffff1673ffffffffffffffffffffffffffffffffffffffff161415610b3457610b41565b8080600101915050610a42565b6000808673ffffffffffffffffffffffffffffffffffffffff1673ffffffffffffffffffffffffffffffffffffffff16815260200190815260200160002060070154811015610cfc5760016000808773ffffffffffffffffffffffffffffffffffffffff1673ffffffffffffffffffffffffffffffffffffffff16815260200190815260200160002060000160008282540192505081905550836000808773ffffffffffffffffffffffffffffffffffffffff1673ffffffffffffffffffffffffffffffffffffffff16815260200190815260200160002060020182600581101515610c2957fe5b0160006101000a81548173ffffffffffffffffffffffffffffffffffffffff021916908373ffffffffffffffffffffffffffffffffffffffff1602179055508473ffffffffffffffffffffffffffffffffffffffff167f65dce515c55eb8d94c3ec733006907bb1a555ef5fb2ab7227019830d4f90a2596000808873ffffffffffffffffffffffffffffffffffffffff1673ffffffffffffffffffffffffffffffffffffffff168152602001908152602001600020600001546040518082815260200191505060405180910390a2600191505b5b819250505092915050565b60003373ffffffffffffffffffffffffffffffffffffffff16733d40fad73c91aed74ffbc1f09f4cde7cce53367173ffffffffffffffffffffffffffffffffffffffff161415610e905760016000808573ffffffffffffffffffffffffffffffffffffffff1673ffffffffffffffffffffffffffffffffffffffff16815260200190815260200160002060000160008282540192505081905550816000808573ffffffffffffffffffffffffffffffffffffffff1673ffffffffffffffffffffffffffffffffffffffff168152602001908152602001600020600a019080519060200190610df792919061191c565b508273ffffffffffffffffffffffffffffffffffffffff167f65dce515c55eb8d94c3ec733006907bb1a555ef5fb2ab7227019830d4f90a2596000808673ffffffffffffffffffffffffffffffffffffffff1673ffffffffffffffffffffffffffffffffffffffff168152602001908152602001600020600001546040518082815260200191505060405180910390a260019050610e95565b600090505b92915050565b60003373ffffffffffffffffffffffffffffffffffffffff16733d40fad73c91aed74ffbc1f09f4cde7cce53367173ffffffffffffffffffffffffffffffffffffffff1614156110595760016000808673ffffffffffffffffffffffffffffffffffffffff1673ffffffffffffffffffffffffffffffffffffffff16815260200190815260200160002060000160008282540192505081905550826000808673ffffffffffffffffffffffffffffffffffffffff1673ffffffffffffffffffffffffffffffffffffffff16815260200190815260200160002060080181905550816000808673ffffffffffffffffffffffffffffffffffffffff1673ffffffffffffffffffffffffffffffffffffffff168152602001908152602001600020600901819055508373ffffffffffffffffffffffffffffffffffffffff167f65dce515c55eb8d94c3ec733006907bb1a555ef5fb2ab7227019830d4f90a2596000808773ffffffffffffffffffffffffffffffffffffffff1673ffffffffffffffffffffffffffffffffffffffff168152602001908152602001600020600001546040518082815260200191505060405180910390a26001905061105e565b600090505b9392505050565b600061106f61199c565b6000808473ffffffffffffffffffffffffffffffffffffffff1673ffffffffffffffffffffffffffffffffffffffff168152602001908152602001600020600001546000808573ffffffffffffffffffffffffffffffffffffffff1673ffffffffffffffffffffffffffffffffffffffff168152602001908152602001600020600a01808054600181600116156101000203166002900480601f0160208091040260200160405190810160405280929190818152602001828054600181600116156101000203166002900480156111875780601f1061115c57610100808354040283529160200191611187565b820191906000526020600020905b81548152906001019060200180831161116a57829003601f168201915b5050505050905091509150915091565b60006111a16119b0565b60008060008573ffffffffffffffffffffffffffffffffffffffff1673ffffffffffffffffffffffffffffffffffffffff168152602001908152602001600020600001546000808673ffffffffffffffffffffffffffffffffffffffff1673ffffffffffffffffffffffffffffffffffffffff1681526020019081526020016000206002016000808773ffffffffffffffffffffffffffffffffffffffff1673ffffffffffffffffffffffffffffffffffffffff16815260200190815260200160002060070154816005806020026040519081016040528092919082600580156112d6576020028201915b8160009054906101000a900473ffffffffffffffffffffffffffffffffffffffff1673ffffffffffffffffffffffffffffffffffffffff168152602001906001019080831161128c575b505050505091509250925092509193909250565b60008060008060008060008773ffffffffffffffffffffffffffffffffffffffff1673ffffffffffffffffffffffffffffffffffffffff168152602001908152602001600020600001546000808873ffffffffffffffffffffffffffffffffffffffff1673ffffffffffffffffffffffffffffffffffffffff16815260200190815260200160002060010160009054906101000a900460ff166000808973ffffffffffffffffffffffffffffffffffffffff1673ffffffffffffffffffffffffffffffffffffffff16815260200190815260200160002060010160019054906101000a900460ff166000808a73ffffffffffffffffffffffffffffffffffffffff1673ffffffffffffffffffffffffffffffffffffffff168152602001908152602001600020600801546000808b73ffffffffffffffffffffffffffffffffffffffff1673ffffffffffffffffffffffffffffffffffffffff168152602001908152602001600020600901549450945094509450945091939590929450565b60003373ffffffffffffffffffffffffffffffffffffffff16733d40fad73c91aed74ffbc1f09f4cde7cce53367173ffffffffffffffffffffffffffffffffffffffff1614156116375760016000808573ffffffffffffffffffffffffffffffffffffffff1673ffffffffffffffffffffffffffffffffffffffff1681526020019081526020016000206000016000828254019250508190555060058211156115585760056000808573ffffffffffffffffffffffffffffffffffffffff1673ffffffffffffffffffffffffffffffffffffffff1681526020019081526020016000206007018190555061159f565b816000808573ffffffffffffffffffffffffffffffffffffffff1673ffffffffffffffffffffffffffffffffffffffff168152602001908152602001600020600701819055505b8273ffffffffffffffffffffffffffffffffffffffff167f65dce515c55eb8d94c3ec733006907bb1a555ef5fb2ab7227019830d4f90a2596000808673ffffffffffffffffffffffffffffffffffffffff1673ffffffffffffffffffffffffffffffffffffffff168152602001908152602001600020600001546040518082815260200191505060405180910390a26001905061163c565b600090505b92915050565b6000803373ffffffffffffffffffffffffffffffffffffffff16733d40fad73c91aed74ffbc1f09f4cde7cce53367173ffffffffffffffffffffffffffffffffffffffff1614156119115760016000808573ffffffffffffffffffffffffffffffffffffffff1673ffffffffffffffffffffffffffffffffffffffff1681526020019081526020016000206000018190555060016000808573ffffffffffffffffffffffffffffffffffffffff1673ffffffffffffffffffffffffffffffffffffffff16815260200190815260200160002060010160006101000a81548160ff02191690831515021790555060008060008573ffffffffffffffffffffffffffffffffffffffff1673ffffffffffffffffffffffffffffffffffffffff16815260200190815260200160002060010160016101000a81548160ff021916908315150217905550600090505b60058110156118325760008060008573ffffffffffffffffffffffffffffffffffffffff1673ffffffffffffffffffffffffffffffffffffffff168152602001908152602001600020600201826005811015156117e657fe5b0160006101000a81548173ffffffffffffffffffffffffffffffffffffffff021916908373ffffffffffffffffffffffffffffffffffffffff160217905550808060010191505061178d565b60008060008573ffffffffffffffffffffffffffffffffffffffff1673ffffffffffffffffffffffffffffffffffffffff168152602001908152602001600020600701819055508273ffffffffffffffffffffffffffffffffffffffff167f65dce515c55eb8d94c3ec733006907bb1a555ef5fb2ab7227019830d4f90a2596000808673ffffffffffffffffffffffffffffffffffffffff1673ffffffffffffffffffffffffffffffffffffffff168152602001908152602001600020600001546040518082815260200191505060405180910390a260019150611916565b600091505b50919050565b828054600181600116156101000203166002900490600052602060002090601f016020900481019282601f1061195d57805160ff191683800117855561198b565b8280016001018555821561198b579182015b8281111561198a57825182559160200191906001019061196f565b5b50905061199891906119ee565b5090565b602060405190810160405280600081525090565b60a0604051908101604052806005905b600073ffffffffffffffffffffffffffffffffffffffff168152602001906001900390816119c05790505090565b611a1091905b80821115611a0c5760008160009055506001016119f4565b5090565b905600a165627a7a7230582009922172cd6929c682e9ac96cc0bf5199b18addb6e069ae31ec2cc4d710a106f0029",
  "source": "pragma solidity ^0.4.18;\n\ncontract CapACToken {\n\n\t/*\n\t\tDefine struct to represent capability token data.\n\t*/\n\tstruct CapabilityToken {\n\t\tuint id;\t\t\t\t// token id\n\t\tbool initialized;\t\t//check whether token has been initialized\n\t\tbool isValid;\t\t\t// flage to indicate whether token valid, used for temporary dispense operation\n\t\taddress[5] delegatee; \t\t// person delegated to access right\n\t\tuint delegateDepth; \t\t// person delegated to access right\n\t\tuint256 issuedate;\t\t// token issued date\n\t\tuint256 expireddate;\t\t// token expired date\n\t\tstring authorization;\n\t}\n\n\t// Global state variables\n\taddress private constant supervisor = 0x3d40fad73c91aed74ffbc1f09f4cde7cce533671;\n\tmapping(address => CapabilityToken) captokens;\n\n\t// event handle function\n\tevent OnValueChanged(address indexed _from, uint _value);\n\n\t/* \n\t\tfunction: query token data given address and return general token data\n\t*/\n\tfunction getCapTokenStatus(address recipient) public constant returns (uint, \n\t\t\t\t\t\t\t\t\t\t\t\t\t\t\t\t\t\t\tbool, \n\t\t\t\t\t\t\t\t\t\t\t\t\t\t\t\t\t\t\tbool, \n\t\t\t\t\t\t\t\t\t\t\t\t\t\t\t\t\t\t\tuint256, \n\t\t\t\t\t\t\t\t\t\t\t\t\t\t\t\t\t\t\tuint256) {\n\t\t// querying token from authorized address is allowed: supervisor or delegatee\n        //if( (recipient == msg.sender) || (supervisor == msg.sender) ) {\n\t\t    //var token_str='';\n\t\t\t/*if(captokens[recipient].initialized == false) {\n\t\t\t\t//tokenToString(recipient);\n\t\t\t\tiniCapToken(recipient);\n\t\t\t}*/\n\n\t\t\treturn(\tcaptokens[recipient].id, \n\t\t\t\t\tcaptokens[recipient].initialized,\n\t\t\t\t\tcaptokens[recipient].isValid,\n\t\t\t\t\tcaptokens[recipient].issuedate,\n\t\t\t\t\tcaptokens[recipient].expireddate\n\t\t\t\t\t);\n\t\t/*}\n\t\t// otherwise, return empty data\n\t\telse {\n\t\t\treturn(\t0, \n\t\t\t\t\tfalse,\n\t\t\t\t\tfalse,\n\t\t\t\t\tcaptokens[recipient].delegatee,\n\t\t\t\t\t0,\n\t\t\t\t\t0,\n\t\t\t\t\t\"Empty\"\n\t\t\t\t\t);\n\t\t}*/\n\n\t}\n\n\t/* \n\t\tfunction: query delegation data given address\n\t*/\n\tfunction getDelegateStatus(address recipient) public constant returns (uint, address[5], uint) {\n\n\t\t\treturn(\tcaptokens[recipient].id, \n\t\t\t\t\tcaptokens[recipient].delegatee,\n\t\t\t\t\tcaptokens[recipient].delegateDepth\n\t\t\t\t\t);\n\t}\n\n\t/* \n\t\tfunction: query Authorization data given address\n\t*/\n\tfunction getAuthorization(address recipient) public constant returns (uint, string) {\n\n\t\t\treturn(\tcaptokens[recipient].id, \n\t\t\t\t\tcaptokens[recipient].authorization\n\t\t\t\t\t);\n\t}\n\n\n\t/*\n\tFunction: Initilized token data given address.\n\t*/\n\tfunction initCapToken(address recipient) public returns (bool) {\n\t\tif( supervisor == msg.sender) {\n\t\t\t//set id and initialized flag\n\t\t\tcaptokens[recipient].id = 1;\n\t\t\tcaptokens[recipient].initialized = true;\n\n\t\t\t//disable token\n\t\t\tcaptokens[recipient].isValid = false;\n\n\t\t\t//disable delegation\n\t\t\tfor(uint i = 0; i < 5; i++) {\n\t\t\t\tcaptokens[recipient].delegatee[i] = address(0);\n\t\t\t}\n\t\t\tcaptokens[recipient].delegateDepth = 0;\n\t\t\t//captokens[recipient].issuedate = now;\n\t\t\t//captokens[recipient].expireddate = now + 1 days;\n\n\t\t\t//set default access right\n\t\t\t//captokens[recipient].authorization = \"No Access Authorized\";\t\n\n\t\t\t// notify OnValueChanged event\n\t\t\tOnValueChanged(recipient, captokens[recipient].id);\t\n\t\t\treturn true;\n\n\t\t}\n\t\telse {\n\t\t\treturn false;\n\t\t}\n\t}\n\n\t// Set isValid flag call function\n\tfunction setCapToken_isValid(address recipient, bool isValid) public returns (bool) {\n\t\tif( supervisor == msg.sender) {\n\t\t\tcaptokens[recipient].id += 1;\n\t\t\tcaptokens[recipient].isValid = isValid;\n\t\t\tOnValueChanged(recipient, captokens[recipient].id);\n\t\t\treturn true;\n\t\t}\n\t\telse{\n\t\t\treturn false;\n\t\t}\n\t\t\n\t}\n\n\t// Set delegation depth flag call function\n\tfunction setCapToken_delegateDepth(address recipient, uint depth) public returns (bool) {\n\t\tif( supervisor == msg.sender) {\n\t\t\tcaptokens[recipient].id += 1;\n\n\t\t\t//check if delegation depth is more that max 5\n\t\t\tif(depth > 5) {\n\t\t\t\tcaptokens[recipient].delegateDepth = 5;\n\t\t\t}\n\t\t\telse {\n\t\t\t\tcaptokens[recipient].delegateDepth = depth;\t\t\t\n\t\t\t}\n\t\t\t\n\t\t\tOnValueChanged(recipient, captokens[recipient].id);\n\t\t\treturn true;\n\t\t}\n\t\telse{\n\t\t\treturn false;\n\t\t}\n\t\t\n\t}\n\n\t// Add delegatee call function\n\tfunction setCapToken_delegatee(address recipient, address delegatee) public returns (bool) {\n\t\tbool ret = false;\n\t\tif( supervisor == msg.sender) {\n\t\t\tuint free_index = 0;\n\t\t\tfor(free_index = 0; free_index < captokens[recipient].delegateDepth; free_index++) {\n\t\t\t\t//check if the address is not set\n\t\t\t\tif(captokens[recipient].delegatee[free_index] == address(0)) {\n\t\t\t\t\tbreak;\n\t\t\t\t}\n\t\t\t}\n\t\t\tif(free_index < captokens[recipient].delegateDepth) {\n\t\t\t\tcaptokens[recipient].id += 1;\n\t\t\t\tcaptokens[recipient].delegatee[free_index] = delegatee;\n\t\t\t\tOnValueChanged(recipient, captokens[recipient].id);\n\t\t\t\tret = true;\n\t\t\t}\n\t\t}\n\t\treturn ret;\t\t\n\t}\n\n\t// revoke delegatee call function\n\tfunction setCapToken_revokeDelegate(address recipient, address delegatee) public returns (bool) {\n\t\tbool ret = false;\n\t\tif( supervisor == msg.sender) {\n\t\t\tuint free_index = 0;\n\t\t\tfor(free_index = 0; free_index < captokens[recipient].delegateDepth; free_index++) {\n\t\t\t\t//check if the address is exist\n\t\t\t\tif(captokens[recipient].delegatee[free_index] == delegatee) {\n\t\t\t\t\tbreak;\n\t\t\t\t}\n\t\t\t}\n\t\t\tif(free_index < captokens[recipient].delegateDepth) {\n\t\t\t\tcaptokens[recipient].id += 1;\n\t\t\t\tcaptokens[recipient].delegatee[free_index] = address(0);\n\t\t\t\tOnValueChanged(recipient, captokens[recipient].id);\n\t\t\t\tret = true;\n\t\t\t}\n\t\t}\n\t\treturn ret;\t\t\n\t}\n\n\n\t// Set time limitation call function\n\tfunction setCapToken_expireddate(address recipient, \n\t\t\t\t\t\t\t\t\tuint256 issueddate, \n\t\t\t\t\t\t\t\t\tuint256 expireddate) public returns (bool) {\n\t\tif( supervisor == msg.sender) {\n\t\t\tcaptokens[recipient].id += 1;\n\t\t\tcaptokens[recipient].issuedate = issueddate;\n\t\t\tcaptokens[recipient].expireddate = expireddate;\n\t\t\tOnValueChanged(recipient, captokens[recipient].id);\n\t\t\treturn true;\n\t\t}\n\t\telse {\n\t\t\treturn false;\n\t\t}\n\t}\n\n\t// Set accessright call function\n\tfunction setCapToken_authorization(address recipient, \n\t\t\t\t\t\t\t\t\t\tstring accessright) public returns (bool) {\n\t\tif( supervisor == msg.sender) {\n\t\t\tcaptokens[recipient].id += 1;\n\t\t\tcaptokens[recipient].authorization = accessright;\n\t\t\tOnValueChanged(recipient, captokens[recipient].id);\n\t\t\treturn true;\n\t\t}\n\t\telse{\n\t\t\treturn false;\n\t\t}\n\t\t\n\t}\n}\n",
  "sourcePath": "/home/ronghua/Desktop/Github/Research/Security/py_dev/IndexAuth_BC/IndexAuthContract/contracts/IndexToken.sol",
  "compiler": {
    "name": "solc",
    "version": "0.4.18+commit.9cf6e910.Emscripten.clang"
  },
  "schemaVersion": "1.0.1",
  "updatedAt": "2018-07-02T20:49:54.718Z"
}