{
  "contractName": "SrvExchange",
  "abi": [
    {
      "constant": true,
      "inputs": [
        {
          "name": "addr_node",
          "type": "address"
        }
      ],
      "name": "getAccount",
      "outputs": [
        {
          "name": "",
          "type": "uint256"
        },
        {
          "name": "",
          "type": "uint256"
        },
        {
          "name": "",
          "type": "uint256"
        }
      ],
      "payable": false,
      "stateMutability": "view",
      "type": "function"
    },
    {
      "constant": false,
      "inputs": [
        {
          "name": "addr_node",
          "type": "address"
        }
      ],
      "name": "initAccount",
      "outputs": [
        {
          "name": "",
          "type": "bool"
        }
      ],
      "payable": false,
      "stateMutability": "nonpayable",
      "type": "function"
    },
    {
      "constant": false,
      "inputs": [
        {
          "name": "addr_node",
          "type": "address"
        },
        {
          "name": "status",
          "type": "uint256"
        },
        {
          "name": "balance",
          "type": "uint256"
        }
      ],
      "name": "setAccount",
      "outputs": [
        {
          "name": "",
          "type": "bool"
        }
      ],
      "payable": false,
      "stateMutability": "nonpayable",
      "type": "function"
    },
    {
      "constant": true,
      "inputs": [],
      "name": "getService",
      "outputs": [
        {
          "name": "dealer_uid",
          "type": "uint256"
        },
        {
          "name": "dealer_balance",
          "type": "uint256"
        },
        {
          "name": "provider_VID",
          "type": "address"
        },
        {
          "name": "provider_serviceInfo",
          "type": "string"
        },
        {
          "name": "provider_status",
          "type": "uint256"
        },
        {
          "name": "recipient_VID",
          "type": "address"
        },
        {
          "name": "recipient_serviceInfo",
          "type": "string"
        },
        {
          "name": "recipient_status",
          "type": "uint256"
        }
      ],
      "payable": false,
      "stateMutability": "view",
      "type": "function"
    },
    {
      "constant": false,
      "inputs": [],
      "name": "initService",
      "outputs": [
        {
          "name": "",
          "type": "bool"
        }
      ],
      "payable": true,
      "stateMutability": "payable",
      "type": "function"
    },
    {
      "constant": false,
      "inputs": [
        {
          "name": "addr_node",
          "type": "address"
        },
        {
          "name": "serviceInfo",
          "type": "string"
        }
      ],
      "name": "updateProvider",
      "outputs": [
        {
          "name": "",
          "type": "bool"
        }
      ],
      "payable": false,
      "stateMutability": "nonpayable",
      "type": "function"
    },
    {
      "constant": false,
      "inputs": [
        {
          "name": "addr_node",
          "type": "address"
        },
        {
          "name": "serviceInfo",
          "type": "string"
        }
      ],
      "name": "updateRecipient",
      "outputs": [
        {
          "name": "",
          "type": "bool"
        }
      ],
      "payable": false,
      "stateMutability": "nonpayable",
      "type": "function"
    },
    {
      "constant": false,
      "inputs": [
        {
          "name": "addr_node",
          "type": "address"
        },
        {
          "name": "time_currency",
          "type": "uint256"
        }
      ],
      "name": "recipient_deposit",
      "outputs": [
        {
          "name": "",
          "type": "bool"
        }
      ],
      "payable": false,
      "stateMutability": "nonpayable",
      "type": "function"
    },
    {
      "constant": false,
      "inputs": [
        {
          "name": "addr_node",
          "type": "address"
        }
      ],
      "name": "recipient_withdraw",
      "outputs": [
        {
          "name": "",
          "type": "bool"
        }
      ],
      "payable": false,
      "stateMutability": "nonpayable",
      "type": "function"
    },
    {
      "constant": false,
      "inputs": [
        {
          "name": "addr_node",
          "type": "address"
        }
      ],
      "name": "provider_confirm",
      "outputs": [
        {
          "name": "",
          "type": "bool"
        }
      ],
      "payable": false,
      "stateMutability": "nonpayable",
      "type": "function"
    },
    {
      "constant": false,
      "inputs": [
        {
          "name": "addr_node",
          "type": "address"
        }
      ],
      "name": "service_commit",
      "outputs": [
        {
          "name": "",
          "type": "bool"
        }
      ],
      "payable": false,
      "stateMutability": "nonpayable",
      "type": "function"
    },
    {
      "constant": false,
      "inputs": [
        {
          "name": "addr_node",
          "type": "address"
        }
      ],
      "name": "service_payment",
      "outputs": [
        {
          "name": "",
          "type": "bool"
        }
      ],
      "payable": false,
      "stateMutability": "nonpayable",
      "type": "function"
    }
  ],
  "bytecode": "0x6060604052341561000f57600080fd5b61167c8061001e6000396000f3006060604052600436106100ba576000357c0100000000000000000000000000000000000000000000000000000000900463ffffffff1680630362ab61146100bf5780631660c22a146101105780631bff5f50146101a4578063572f897a146101f557806357630ac5146102465780635a6c4158146102a95780636cdafa58146102fa578063910e856514610476578063992c393e146104d0578063e30909b9146104f2578063ec81bb5914610586578063fbcbc0f1146105d7575b600080fd5b34156100ca57600080fd5b6100f6600480803573ffffffffffffffffffffffffffffffffffffffff16906020019091905050610632565b604051808215151515815260200191505060405180910390f35b341561011b57600080fd5b61018a600480803573ffffffffffffffffffffffffffffffffffffffff1690602001909190803590602001908201803590602001908080601f01602080910402602001604051908101604052809392919081815260200183838082843782019150505050505091905050610a33565b604051808215151515815260200191505060405180910390f35b34156101af57600080fd5b6101db600480803573ffffffffffffffffffffffffffffffffffffffff16906020019091905050610ad2565b604051808215151515815260200191505060405180910390f35b341561020057600080fd5b61022c600480803573ffffffffffffffffffffffffffffffffffffffff16906020019091905050610b6f565b604051808215151515815260200191505060405180910390f35b341561025157600080fd5b61028f600480803573ffffffffffffffffffffffffffffffffffffffff16906020019091908035906020019091908035906020019091905050610c2a565b604051808215151515815260200191505060405180910390f35b34156102b457600080fd5b6102e0600480803573ffffffffffffffffffffffffffffffffffffffff16906020019091905050610d68565b604051808215151515815260200191505060405180910390f35b341561030557600080fd5b61030d610e9d565b604051808981526020018881526020018773ffffffffffffffffffffffffffffffffffffffff1673ffffffffffffffffffffffffffffffffffffffff168152602001806020018681526020018573ffffffffffffffffffffffffffffffffffffffff1673ffffffffffffffffffffffffffffffffffffffff16815260200180602001848152602001838103835288818151815260200191508051906020019080838360005b838110156103cd5780820151818401526020810190506103b2565b50505050905090810190601f1680156103fa5780820380516001836020036101000a031916815260200191505b50838103825285818151815260200191508051906020019080838360005b83811015610433578082015181840152602081019050610418565b50505050905090810190601f1680156104605780820380516001836020036101000a031916815260200191505b509a505050505050505050505060405180910390f35b341561048157600080fd5b6104b6600480803573ffffffffffffffffffffffffffffffffffffffff1690602001909190803590602001909190505061106f565b604051808215151515815260200191505060405180910390f35b6104d861112b565b604051808215151515815260200191505060405180910390f35b34156104fd57600080fd5b61056c600480803573ffffffffffffffffffffffffffffffffffffffff1690602001909190803590602001908201803590602001908080601f016020809104026020016040519081016040528093929190818152602001838380828437820191505050505050919050506112ed565b604051808215151515815260200191505060405180910390f35b341561059157600080fd5b6105bd600480803573ffffffffffffffffffffffffffffffffffffffff1690602001909190505061138d565b604051808215151515815260200191505060405180910390f35b34156105e257600080fd5b61060e600480803573ffffffffffffffffffffffffffffffffffffffff169060200190919050506114bc565b60405180848152602001838152602001828152602001935050505060405180910390f35b6000600360026003015414801561064e57506003600660030154145b15610a29578173ffffffffffffffffffffffffffffffffffffffff16600260010160009054906101000a900473ffffffffffffffffffffffffffffffffffffffff1673ffffffffffffffffffffffffffffffffffffffff16148061070257508173ffffffffffffffffffffffffffffffffffffffff16600660010160009054906101000a900473ffffffffffffffffffffffffffffffffffffffff1673ffffffffffffffffffffffffffffffffffffffff16145b15610a28576001600a6000600260010160009054906101000a900473ffffffffffffffffffffffffffffffffffffffff1673ffffffffffffffffffffffffffffffffffffffff1673ffffffffffffffffffffffffffffffffffffffff16815260200190815260200160002060000160008282540192505081905550600060010154600a6000600260010160009054906101000a900473ffffffffffffffffffffffffffffffffffffffff1673ffffffffffffffffffffffffffffffffffffffff1673ffffffffffffffffffffffffffffffffffffffff168152602001908152602001600020600101600082825401925050819055506001600a6000600660010160009054906101000a900473ffffffffffffffffffffffffffffffffffffffff1673ffffffffffffffffffffffffffffffffffffffff1673ffffffffffffffffffffffffffffffffffffffff16815260200190815260200160002060000160008282540192505081905550600060010154600a6000600660010160009054906101000a900473ffffffffffffffffffffffffffffffffffffffff1673ffffffffffffffffffffffffffffffffffffffff1673ffffffffffffffffffffffffffffffffffffffff16815260200190815260200160002060010160008282540392505081905550600160008001600082825401925050819055506000806001018190555060016002600001600082825401925050819055506000600260010160006101000a81548173ffffffffffffffffffffffffffffffffffffffff021916908373ffffffffffffffffffffffffffffffffffffffff1602179055506020604051908101604052806000815250600280019080519060200190610985929190611597565b50600060026003018190555060016006600001600082825401925050819055506000600660010160006101000a81548173ffffffffffffffffffffffffffffffffffffffff021916908373ffffffffffffffffffffffffffffffffffffffff160217905550602060405190810160405280600081525060066002019080519060200190610a13929190611597565b50600060066003018190555060019050610a2e565b5b600090505b919050565b6000806002600301541415610ac757600160026000016000828254019250508190555082600260010160006101000a81548173ffffffffffffffffffffffffffffffffffffffff021916908373ffffffffffffffffffffffffffffffffffffffff16021790555081600280019080519060200190610ab2929190611597565b50600160026003018190555060019050610acc565b600090505b92915050565b60008173ffffffffffffffffffffffffffffffffffffffff16600260010160009054906101000a900473ffffffffffffffffffffffffffffffffffffffff1673ffffffffffffffffffffffffffffffffffffffff16148015610b3957506001600260030154145b15610b655760016002600001600082825401925050819055506002806003018190555060019050610b6a565b600090505b919050565b60008173ffffffffffffffffffffffffffffffffffffffff16600660010160009054906101000a900473ffffffffffffffffffffffffffffffffffffffff1673ffffffffffffffffffffffffffffffffffffffff16148015610bd657506002600660030154145b15610c205760016000800160008282540192505081905550600080600101819055506001600660000160008282540192505081905550600160066003018190555060019050610c25565b600090505b919050565b60003373ffffffffffffffffffffffffffffffffffffffff16730217f674800617172170f8e09c008b5913b9bccc73ffffffffffffffffffffffffffffffffffffffff161415610d5c576001600a60008673ffffffffffffffffffffffffffffffffffffffff1673ffffffffffffffffffffffffffffffffffffffff1681526020019081526020016000206000016000828254019250508190555082600a60008673ffffffffffffffffffffffffffffffffffffffff1673ffffffffffffffffffffffffffffffffffffffff1681526020019081526020016000206002018190555081600a60008673ffffffffffffffffffffffffffffffffffffffff1673ffffffffffffffffffffffffffffffffffffffff1681526020019081526020016000206001018190555060019050610d61565b600090505b9392505050565b60003373ffffffffffffffffffffffffffffffffffffffff16730217f674800617172170f8e09c008b5913b9bccc73ffffffffffffffffffffffffffffffffffffffff161415610e93576000600a60008473ffffffffffffffffffffffffffffffffffffffff1673ffffffffffffffffffffffffffffffffffffffff168152602001908152602001600020600001819055506000600a60008473ffffffffffffffffffffffffffffffffffffffff1673ffffffffffffffffffffffffffffffffffffffff168152602001908152602001600020600101819055506000600a60008473ffffffffffffffffffffffffffffffffffffffff1673ffffffffffffffffffffffffffffffffffffffff1681526020019081526020016000206002018190555060019050610e98565b600090505b919050565b6000806000610eaa611617565b600080610eb5611617565b6000806000015497506000600101549650600260010160009054906101000a900473ffffffffffffffffffffffffffffffffffffffff169550600280018054600181600116156101000203166002900480601f016020809104026020016040519081016040528092919081815260200182805460018160011615610100020316600290048015610f865780601f10610f5b57610100808354040283529160200191610f86565b820191906000526020600020905b815481529060010190602001808311610f6957829003601f168201915b505050505094506002600301549350600660010160009054906101000a900473ffffffffffffffffffffffffffffffffffffffff16925060066002018054600181600116156101000203166002900480601f0160208091040260200160405190810160405280929190818152602001828054600181600116156101000203166002900480156110565780601f1061102b57610100808354040283529160200191611056565b820191906000526020600020905b81548152906001019060200180831161103957829003601f168201915b5050505050915060066003015490509091929394959697565b60008273ffffffffffffffffffffffffffffffffffffffff16600660010160009054906101000a900473ffffffffffffffffffffffffffffffffffffffff1673ffffffffffffffffffffffffffffffffffffffff161480156110d657506001600660030154145b156111205760016000800160008282540192505081905550816000600101819055506001600660000160008282540192505081905550600260066003018190555060019050611125565b600090505b92915050565b60003373ffffffffffffffffffffffffffffffffffffffff16730217f674800617172170f8e09c008b5913b9bccc73ffffffffffffffffffffffffffffffffffffffff1614156112e557600160008001819055506000806001018190555060016002600001819055506000600260010160006101000a81548173ffffffffffffffffffffffffffffffffffffffff021916908373ffffffffffffffffffffffffffffffffffffffff1602179055506040805190810160405280600581526020017f656d707479000000000000000000000000000000000000000000000000000000815250600280019080519060200190611226929190611597565b50600060026003018190555060016006600001819055506000600660010160006101000a81548173ffffffffffffffffffffffffffffffffffffffff021916908373ffffffffffffffffffffffffffffffffffffffff1602179055506040805190810160405280600581526020017f656d707479000000000000000000000000000000000000000000000000000000815250600660020190805190602001906112d0929190611597565b506000600660030181905550600190506112ea565b600090505b90565b600080600660030154141561138257600160066000016000828254019250508190555082600660010160006101000a81548173ffffffffffffffffffffffffffffffffffffffff021916908373ffffffffffffffffffffffffffffffffffffffff160217905550816006600201908051906020019061136d929190611597565b50600160066003018190555060019050611387565b600090505b92915050565b60008173ffffffffffffffffffffffffffffffffffffffff16600260010160009054906101000a900473ffffffffffffffffffffffffffffffffffffffff1673ffffffffffffffffffffffffffffffffffffffff161480156113f3575060028060030154145b156114205760016002600001600082825401925050819055506003600260030181905550600190506114b7565b8173ffffffffffffffffffffffffffffffffffffffff16600660010160009054906101000a900473ffffffffffffffffffffffffffffffffffffffff1673ffffffffffffffffffffffffffffffffffffffff1614801561148557506002600660030154145b156114b25760016006600001600082825401925050819055506003600660030181905550600190506114b7565b600090505b919050565b6000806000600a60008573ffffffffffffffffffffffffffffffffffffffff1673ffffffffffffffffffffffffffffffffffffffff16815260200190815260200160002060000154600a60008673ffffffffffffffffffffffffffffffffffffffff1673ffffffffffffffffffffffffffffffffffffffff16815260200190815260200160002060010154600a60008773ffffffffffffffffffffffffffffffffffffffff1673ffffffffffffffffffffffffffffffffffffffff168152602001908152602001600020600201549250925092509193909250565b828054600181600116156101000203166002900490600052602060002090601f016020900481019282601f106115d857805160ff1916838001178555611606565b82800160010185558215611606579182015b828111156116055782518255916020019190600101906115ea565b5b509050611613919061162b565b5090565b602060405190810160405280600081525090565b61164d91905b80821115611649576000816000905550600101611631565b5090565b905600a165627a7a72305820db98913bd7fe4a6e5a89a0fa28eccc8846311d69398986f71a899d4e886fa9180029",
  "source": "pragma solidity ^0.4.18;\n\ncontract SrvExchange {\n\n\t/*\n\t\tDefine struct to represent account of each participant.\n\t*/\n\tstruct Account {\n\t\tuint uid;\t\t\t\t\t// auto incremental number.\n\t\tuint balance;\t\t\t\t// balance to record time currency\n\t\tuint status;\t\t\t\t// current status: 0-Initialized; 1-active; 2-inactive\n\t}\n\n\t/*\n\t\tDefine struct to represent dealer.\n\t*/\n\tstruct SrvDealer {\n\t\tuint uid;\t\t\t\t\t// auto incremental number.\n\t\tuint balance;\t\t\t\t// balance to record time currency for payment\n\t}\n\n\t/*\n\t\tDefine struct to represent service provider.\n\t*/\n\tstruct SrvProvider {\n\t\tuint uid;\t\t\t\t\t// auto incremental number.\n\t\taddress VID;\t\t\t\t// provider's VID, we use account address.\n\t\tstring serviceInfo;\t\t\t// service information by provider\n\t\tuint status;\t\t\t\t// current status: 0-Initialized; 1-Registered; 2-Confirmed; 3-Committed\n\t}\n\n\t/*\n\t\tDefine struct to represent service recipient.\n\t*/\n\tstruct SrvRecipient {\n\t\tuint uid;\t\t\t\t\t// auto incremental number.\n\t\taddress VID;\t\t\t\t// recipient's VID, we use account address.\n\t\tstring serviceInfo;\t\t\t// service information by provider\n\t\tuint status;\t\t\t\t// current status: 0-Initialized; 1-Registered; 2-Confirmed; 3-Committed\n\t}\n\n\n\t// Global state variables\n\taddress private constant supervisor = 0x0217f674800617172170f8e09c008b5913b9bccc;\n\t\n\t// initialize struct object \n\tSrvDealer private dealer;\n\tSrvProvider private provider;\n\tSrvRecipient private recipient;\n\n\tmapping(address => Account) TB_account;\t\t\t// associate with unique address with account data\n\n\t//====================================== Account procedures =========================================\n\t/* \n\t\tfunction: query TB_account data given address\n\t*/\n\tfunction getAccount(address addr_node) public constant returns (uint, uint, uint) {\n\t\t\treturn(\tTB_account[addr_node].uid,\n\t\t\t\t\tTB_account[addr_node].balance, \n\t\t\t\t\tTB_account[addr_node].status);\n\t}\n\t\n\n\t/*\n\tFunction: Initilized TB_account data given address.\n\t*/\n\tfunction initAccount(address addr_node) public returns (bool) {\n\t\tif( supervisor == msg.sender) {\n\n\t\t\t// initialize Vzone_master node data\n\t\t\tTB_account[addr_node].uid = 0;\n\t\t\tTB_account[addr_node].balance = 0;\n\t\t\tTB_account[addr_node].status = 0;\n\n\t\t\treturn true;\n\t\t}\n\t\treturn false;\n\t}\n\n\t/*\n\tFunction: Set TB_account status and balance given address.\n\t*/\n\tfunction setAccount(address addr_node, uint status, uint balance) public returns (bool) {\n\t\tif( supervisor == msg.sender) {\n\n\t\t\t// increase uid for each update\n\t\t\tTB_account[addr_node].uid += 1;\n\t\t\t// set status and balance\n\t\t\tTB_account[addr_node].status = status;\n\t\t\tTB_account[addr_node].balance = balance;\n\n\t\t\treturn true;\n\t\t}\n\t\treturn false;\n\n\t}\n\n\t//====================================== service exchange procedures =========================================\n\t\n\t/* \n\t\tfunction: query registered service data\n\t*/\n\tfunction getService() public constant returns (\tuint dealer_uid, \n\t\t\t\t\t\t\t\t\t\t\t\t\tuint dealer_balance,\n\t\t\t\t\t\t\t\t\t\t\t\t\taddress provider_VID, \n\t\t\t\t\t\t\t\t\t\t\t\t\tstring provider_serviceInfo, \n\t\t\t\t\t\t\t\t\t\t\t\t\tuint provider_status,\n\t\t\t\t\t\t\t\t\t\t\t\t\taddress recipient_VID, \n\t\t\t\t\t\t\t\t\t\t\t\t\tstring recipient_serviceInfo, \n\t\t\t\t\t\t\t\t\t\t\t\t\tuint recipient_status) \n\t\t\t\t\t\t\t\t\t\t\t\t\t{\t\t\t\n\n\t\t\tdealer_uid = dealer.uid;\n\t\t\tdealer_balance = dealer.balance;\n\t\t\tprovider_VID = provider.VID;\n\t\t\tprovider_serviceInfo = provider.serviceInfo; \n\t\t\tprovider_status = provider.status;\n\t\t\trecipient_VID = recipient.VID;\n\t\t\trecipient_serviceInfo = recipient.serviceInfo;\n\t\t\trecipient_status = recipient.status;\n\t}\n\n\t/* \n\t\tfunction: initialize service data\n\t*/\n\tfunction initService() public payable returns (bool) {\n\t\tif( supervisor == msg.sender) {\n\n\t\t\t// initialize dealer\n\t\t\tdealer.uid = 1;\n\t\t\tdealer.balance = 0;\n\n\t\t\t// initialize provider\n\t\t\tprovider.uid = 1;\n\t\t\tprovider.VID = address(0);\n\t\t\tprovider.serviceInfo = 'empty';\n\t\t\tprovider.status = 0;\n\n\t\t\t// initialize recipient\n\t\t\trecipient.uid = 1;\n\t\t\trecipient.VID = address(0);\n\t\t\trecipient.serviceInfo = 'empty';\n\t\t\trecipient.status = 0;\n\n\t\t\treturn true;\n\t\t}\n\t\treturn false;\n\t}\n\n\t/*\n\tFunction: Update provider data given address.\n\t*/\n\tfunction updateProvider(address addr_node, string serviceInfo) public returns (bool) {\n\t\tif( provider.status == 0) {\n\n\t\t\t// update provider data\n\t\t\tprovider.uid += 1;\n\t\t\tprovider.VID = addr_node;\n\t\t\tprovider.serviceInfo = serviceInfo;\n\n\t\t\t// set provider as Registered\n\t\t\tprovider.status = 1;\n\n\t\t\treturn true;\n\t\t}\n\t\treturn false;\n\t}\t\n\n\t/*\n\tFunction: Update recipient data given address.\n\t*/\n\tfunction updateRecipient(address addr_node, string serviceInfo) public returns (bool) {\n\t\tif( recipient.status == 0) {\n\n\t\t\t// update recipient data\n\t\t\trecipient.uid += 1;\n\t\t\trecipient.VID = addr_node;\n\t\t\trecipient.serviceInfo = serviceInfo;\n\n\t\t\t// set recipient as Registered\n\t\t\trecipient.status = 1;\n\n\t\t\treturn true;\n\t\t}\n\t\treturn false;\n\t}\t\n\n\t/*\n\tFunction: set recipient deposit time currency into dealer balance.\n\t*/\n\tfunction recipient_deposit(address addr_node, uint time_currency) public returns (bool) {\n\t\t//check if node is valid recipient and current state is Registered\n\t\tif( (recipient.VID == addr_node) && (recipient.status == 1) ) {\n\n\t\t\t// update dealer data\n\t\t\tdealer.uid += 1;\n\t\t\tdealer.balance = time_currency;\n\n\t\t\t// set recipient as Confirmed\n\t\t\trecipient.uid += 1;\n\t\t\trecipient.status = 2;\n\n\t\t\treturn true;\n\t\t}\n\t\treturn false;\n\t}\n\n\t/*\n\tFunction: remove recipient time currency from dealer balance.\n\t*/\n\tfunction recipient_withdraw(address addr_node) public returns (bool) {\n\t\t//check if node is valid recipient and current state is Registered\n\t\tif( (recipient.VID == addr_node) && (recipient.status == 2) ) {\n\n\t\t\t// update dealer data\n\t\t\tdealer.uid += 1;\n\t\t\tdealer.balance = 0;\n\n\t\t\t// set recipient as Registered\n\t\t\trecipient.uid += 1;\n\t\t\trecipient.status = 1;\n\t\t\treturn true;\n\t\t}\n\t\treturn false;\n\t}\n\n\n\t/*\n\tFunction: set provider as Confirmed.\n\t*/\n\tfunction provider_confirm(address addr_node) public returns (bool) {\n\t\t//check if node is valid provider and current state is Registered\n\t\tif( (provider.VID == addr_node) && (provider.status == 1) ) {\n\n\t\t\t// set provider as Confirmed\n\t\t\tprovider.uid += 1;\n\t\t\tprovider.status = 2;\n\n\t\t\treturn true;\n\t\t}\n\t\treturn false;\n\t}\t\n\n\t/*\n\tFunction: set service Committed state given address.\n\t*/\n\tfunction service_commit(address addr_node) public returns (bool) {\n\t\t//check if both provider and recipient are Confirmed\n\t\tif( (provider.VID == addr_node) && (provider.status == 2) ) {\n\t\t\t// set provider as Committed\n\t\t\tprovider.uid += 1;\n\t\t\tprovider.status = 3;\n\t\t\treturn true;\n\t\t}\n\n\t\tif( (recipient.VID == addr_node) && (recipient.status == 2) ) {\n\t\t\t// set recipient as Committed\n\t\t\trecipient.uid += 1;\n\t\t\trecipient.status = 3;\n\t\t\treturn true;\n\t\t}\n\t\treturn false;\n\t}\t\n\n\t/*\n\tFunction: service payment to transfer balance and re-initialize state.\n\t*/\n\tfunction service_payment(address addr_node) public returns (bool) {\n\t\t//check if both provider and recipient are Confirmed\n\t\tif( (provider.status == 3) && (recipient.status == 3) ) {\n\n\t\t\tif( (provider.VID == addr_node) || (recipient.VID == addr_node) ) {\n\t\t\t\t// ---------- transfer time currency -----------------\n\t\t\t\t// 1) add time to provider's account\n\t\t\t\tTB_account[provider.VID].uid += 1;\n\t\t\t\tTB_account[provider.VID].balance += dealer.balance;\t\n\t\t\t\t// 2) substract time from recipient's account\n\t\t\t\tTB_account[recipient.VID].uid += 1;\n\t\t\t\tTB_account[recipient.VID].balance -= dealer.balance;\t\t\t\t\t\n\n\t\t\t\t// reset dealer balance\n\t\t\t\tdealer.uid += 1;\n\t\t\t\tdealer.balance = 0;\n\n\t\t\t\t// Reset provider data\n\t\t\t\tprovider.uid += 1;\n\t\t\t\tprovider.VID = address(0);\n\t\t\t\tprovider.serviceInfo = '';\n\t\t\t\tprovider.status = 0;\n\n\t\t\t\t// Reset recipient data\n\t\t\t\trecipient.uid += 1;\n\t\t\t\trecipient.VID = address(0);\n\t\t\t\trecipient.serviceInfo = '';\n\t\t\t\trecipient.status = 0;\n\n\t\t\t\treturn true;\n\t\t\t}\n\n\t\t}\n\t\treturn false;\n\t}\t\n\n}\n",
  "sourcePath": "/home/samuel/Desktop/Github/Research/Security/py_dev/Time_Banking/contract_dev/contracts/SrvExchange.sol",
  "compiler": {
    "name": "solc",
    "version": "0.4.21+commit.dfe3193c.Emscripten.clang"
  },
  "schemaVersion": "2.0.0",
  "updatedAt": "2020-08-11T17:02:33.229Z"
}