{
  "contractName": "CapACToken",
  "abi": [
    {
      "constant": false,
      "inputs": [
        {
          "name": "addr_node",
          "type": "address"
        },
        {
          "name": "isValid",
          "type": "bool"
        }
      ],
      "name": "setCapToken_isValid",
      "outputs": [
        {
          "name": "",
          "type": "bool"
        }
      ],
      "payable": false,
      "stateMutability": "nonpayable",
      "type": "function"
    },
    {
      "constant": false,
      "inputs": [
        {
          "name": "addr_node",
          "type": "address"
        },
        {
          "name": "accessright",
          "type": "string"
        }
      ],
      "name": "setCapToken_authorization",
      "outputs": [
        {
          "name": "",
          "type": "bool"
        }
      ],
      "payable": false,
      "stateMutability": "nonpayable",
      "type": "function"
    },
    {
      "constant": false,
      "inputs": [
        {
          "name": "addr_master",
          "type": "address"
        }
      ],
      "name": "assignVZoneMaster",
      "outputs": [
        {
          "name": "",
          "type": "bool"
        }
      ],
      "payable": false,
      "stateMutability": "nonpayable",
      "type": "function"
    },
    {
      "constant": false,
      "inputs": [
        {
          "name": "addr_node",
          "type": "address"
        },
        {
          "name": "issueddate",
          "type": "uint256"
        },
        {
          "name": "expireddate",
          "type": "uint256"
        }
      ],
      "name": "setCapToken_expireddate",
      "outputs": [
        {
          "name": "",
          "type": "bool"
        }
      ],
      "payable": false,
      "stateMutability": "nonpayable",
      "type": "function"
    },
    {
      "constant": false,
      "inputs": [],
      "name": "revokeVZoneMaster",
      "outputs": [
        {
          "name": "",
          "type": "bool"
        }
      ],
      "payable": false,
      "stateMutability": "nonpayable",
      "type": "function"
    },
    {
      "constant": true,
      "inputs": [
        {
          "name": "addr_node",
          "type": "address"
        }
      ],
      "name": "getCapTokenStatus",
      "outputs": [
        {
          "name": "",
          "type": "uint256"
        },
        {
          "name": "",
          "type": "address"
        },
        {
          "name": "",
          "type": "bool"
        },
        {
          "name": "",
          "type": "bool"
        },
        {
          "name": "",
          "type": "uint256"
        },
        {
          "name": "",
          "type": "uint256"
        },
        {
          "name": "",
          "type": "string"
        }
      ],
      "payable": false,
      "stateMutability": "view",
      "type": "function"
    },
    {
      "constant": false,
      "inputs": [
        {
          "name": "addr_node",
          "type": "address"
        }
      ],
      "name": "initCapToken",
      "outputs": [
        {
          "name": "",
          "type": "bool"
        }
      ],
      "payable": false,
      "stateMutability": "nonpayable",
      "type": "function"
    },
    {
      "anonymous": false,
      "inputs": [
        {
          "indexed": true,
          "name": "_from",
          "type": "address"
        },
        {
          "indexed": false,
          "name": "_value",
          "type": "uint256"
        }
      ],
      "name": "OnValueChanged",
      "type": "event"
    }
  ],
  "bytecode": "0x606060405260008060006101000a81548173ffffffffffffffffffffffffffffffffffffffff021916908373ffffffffffffffffffffffffffffffffffffffff160217905550341561005057600080fd5b6111118061005f6000396000f300606060405260043610610083576000357c0100000000000000000000000000000000000000000000000000000000900463ffffffff16806318b26bec1461008857806344610837146100e457806351e3d5e214610178578063689f2556146101c957806393287bc41461022c578063aefd6e0314610259578063cc084eb314610369575b600080fd5b341561009357600080fd5b6100ca600480803573ffffffffffffffffffffffffffffffffffffffff1690602001909190803515159060200190919050506103ba565b604051808215151515815260200191505060405180910390f35b34156100ef57600080fd5b61015e600480803573ffffffffffffffffffffffffffffffffffffffff1690602001909190803590602001908201803590602001908080601f016020809104026020016040519081016040528093929190818152602001838380828437820191505050505050919050506105a9565b604051808215151515815260200191505060405180910390f35b341561018357600080fd5b6101af600480803573ffffffffffffffffffffffffffffffffffffffff16906020019091905050610795565b604051808215151515815260200191505060405180910390f35b34156101d457600080fd5b610212600480803573ffffffffffffffffffffffffffffffffffffffff16906020019091908035906020019091908035906020019091905050610832565b604051808215151515815260200191505060405180910390f35b341561023757600080fd5b61023f610a56565b604051808215151515815260200191505060405180910390f35b341561026457600080fd5b610290600480803573ffffffffffffffffffffffffffffffffffffffff16906020019091905050610af2565b604051808881526020018773ffffffffffffffffffffffffffffffffffffffff1673ffffffffffffffffffffffffffffffffffffffff168152602001861515151581526020018515151515815260200184815260200183815260200180602001828103825283818151815260200191508051906020019080838360005b8381101561032857808201518184015260208101905061030d565b50505050905090810190601f1680156103555780820380516001836020036101000a031916815260200191505b509850505050505050505060405180910390f35b341561037457600080fd5b6103a0600480803573ffffffffffffffffffffffffffffffffffffffff16906020019091905050610d85565b604051808215151515815260200191505060405180910390f35b60003373ffffffffffffffffffffffffffffffffffffffff16733d40fad73c91aed74ffbc1f09f4cde7cce53367173ffffffffffffffffffffffffffffffffffffffff16148061045657503373ffffffffffffffffffffffffffffffffffffffff166000809054906101000a900473ffffffffffffffffffffffffffffffffffffffff1673ffffffffffffffffffffffffffffffffffffffff16145b1561059e5760018060008573ffffffffffffffffffffffffffffffffffffffff1673ffffffffffffffffffffffffffffffffffffffff1681526020019081526020016000206000016000828254019250508190555081600160008573ffffffffffffffffffffffffffffffffffffffff1673ffffffffffffffffffffffffffffffffffffffff16815260200190815260200160002060010160016101000a81548160ff0219169083151502179055508273ffffffffffffffffffffffffffffffffffffffff167f65dce515c55eb8d94c3ec733006907bb1a555ef5fb2ab7227019830d4f90a259600160008673ffffffffffffffffffffffffffffffffffffffff1673ffffffffffffffffffffffffffffffffffffffff168152602001908152602001600020600001546040518082815260200191505060405180910390a2600190506105a3565b600090505b92915050565b60003373ffffffffffffffffffffffffffffffffffffffff16733d40fad73c91aed74ffbc1f09f4cde7cce53367173ffffffffffffffffffffffffffffffffffffffff16148061064557503373ffffffffffffffffffffffffffffffffffffffff166000809054906101000a900473ffffffffffffffffffffffffffffffffffffffff1673ffffffffffffffffffffffffffffffffffffffff16145b1561078a5760018060008573ffffffffffffffffffffffffffffffffffffffff1673ffffffffffffffffffffffffffffffffffffffff1681526020019081526020016000206000016000828254019250508190555081600160008573ffffffffffffffffffffffffffffffffffffffff1673ffffffffffffffffffffffffffffffffffffffff16815260200190815260200160002060040190805190602001906106f092919061102c565b508273ffffffffffffffffffffffffffffffffffffffff167f65dce515c55eb8d94c3ec733006907bb1a555ef5fb2ab7227019830d4f90a259600160008673ffffffffffffffffffffffffffffffffffffffff1673ffffffffffffffffffffffffffffffffffffffff168152602001908152602001600020600001546040518082815260200191505060405180910390a26001905061078f565b600090505b92915050565b60003373ffffffffffffffffffffffffffffffffffffffff16733d40fad73c91aed74ffbc1f09f4cde7cce53367173ffffffffffffffffffffffffffffffffffffffff16141561082857816000806101000a81548173ffffffffffffffffffffffffffffffffffffffff021916908373ffffffffffffffffffffffffffffffffffffffff1602179055506001905061082d565b600090505b919050565b60003373ffffffffffffffffffffffffffffffffffffffff16733d40fad73c91aed74ffbc1f09f4cde7cce53367173ffffffffffffffffffffffffffffffffffffffff1614806108ce57503373ffffffffffffffffffffffffffffffffffffffff166000809054906101000a900473ffffffffffffffffffffffffffffffffffffffff1673ffffffffffffffffffffffffffffffffffffffff16145b15610a4a5760018060008673ffffffffffffffffffffffffffffffffffffffff1673ffffffffffffffffffffffffffffffffffffffff1681526020019081526020016000206000016000828254019250508190555082600160008673ffffffffffffffffffffffffffffffffffffffff1673ffffffffffffffffffffffffffffffffffffffff1681526020019081526020016000206002018190555081600160008673ffffffffffffffffffffffffffffffffffffffff1673ffffffffffffffffffffffffffffffffffffffff168152602001908152602001600020600301819055508373ffffffffffffffffffffffffffffffffffffffff167f65dce515c55eb8d94c3ec733006907bb1a555ef5fb2ab7227019830d4f90a259600160008773ffffffffffffffffffffffffffffffffffffffff1673ffffffffffffffffffffffffffffffffffffffff168152602001908152602001600020600001546040518082815260200191505060405180910390a260019050610a4f565b600090505b9392505050565b60003373ffffffffffffffffffffffffffffffffffffffff16733d40fad73c91aed74ffbc1f09f4cde7cce53367173ffffffffffffffffffffffffffffffffffffffff161415610aea5760008060006101000a81548173ffffffffffffffffffffffffffffffffffffffff021916908373ffffffffffffffffffffffffffffffffffffffff16021790555060019050610aef565b600090505b90565b600080600080600080610b036110ac565b600160008973ffffffffffffffffffffffffffffffffffffffff1673ffffffffffffffffffffffffffffffffffffffff168152602001908152602001600020600001546000809054906101000a900473ffffffffffffffffffffffffffffffffffffffff16600160008b73ffffffffffffffffffffffffffffffffffffffff1673ffffffffffffffffffffffffffffffffffffffff16815260200190815260200160002060010160009054906101000a900460ff16600160008c73ffffffffffffffffffffffffffffffffffffffff1673ffffffffffffffffffffffffffffffffffffffff16815260200190815260200160002060010160019054906101000a900460ff16600160008d73ffffffffffffffffffffffffffffffffffffffff1673ffffffffffffffffffffffffffffffffffffffff16815260200190815260200160002060020154600160008e73ffffffffffffffffffffffffffffffffffffffff1673ffffffffffffffffffffffffffffffffffffffff16815260200190815260200160002060030154600160008f73ffffffffffffffffffffffffffffffffffffffff1673ffffffffffffffffffffffffffffffffffffffff168152602001908152602001600020600401808054600181600116156101000203166002900480601f016020809104026020016040519081016040528092919081815260200182805460018160011615610100020316600290048015610d655780601f10610d3a57610100808354040283529160200191610d65565b820191906000526020600020905b815481529060010190602001808311610d4857829003601f168201915b505050505090509650965096509650965096509650919395979092949650565b60003373ffffffffffffffffffffffffffffffffffffffff16733d40fad73c91aed74ffbc1f09f4cde7cce53367173ffffffffffffffffffffffffffffffffffffffff161480610e2157503373ffffffffffffffffffffffffffffffffffffffff166000809054906101000a900473ffffffffffffffffffffffffffffffffffffffff1673ffffffffffffffffffffffffffffffffffffffff16145b156110225760018060008473ffffffffffffffffffffffffffffffffffffffff1673ffffffffffffffffffffffffffffffffffffffff1681526020019081526020016000206000018190555060018060008473ffffffffffffffffffffffffffffffffffffffff1673ffffffffffffffffffffffffffffffffffffffff16815260200190815260200160002060010160006101000a81548160ff0219169083151502179055506000600160008473ffffffffffffffffffffffffffffffffffffffff1673ffffffffffffffffffffffffffffffffffffffff16815260200190815260200160002060010160016101000a81548160ff0219169083151502179055506020604051908101604052806000815250600160008473ffffffffffffffffffffffffffffffffffffffff1673ffffffffffffffffffffffffffffffffffffffff1681526020019081526020016000206004019080519060200190610f8892919061102c565b508173ffffffffffffffffffffffffffffffffffffffff167f65dce515c55eb8d94c3ec733006907bb1a555ef5fb2ab7227019830d4f90a259600160008573ffffffffffffffffffffffffffffffffffffffff1673ffffffffffffffffffffffffffffffffffffffff168152602001908152602001600020600001546040518082815260200191505060405180910390a260019050611027565b600090505b919050565b828054600181600116156101000203166002900490600052602060002090601f016020900481019282601f1061106d57805160ff191683800117855561109b565b8280016001018555821561109b579182015b8281111561109a57825182559160200191906001019061107f565b5b5090506110a891906110c0565b5090565b602060405190810160405280600081525090565b6110e291905b808211156110de5760008160009055506001016110c6565b5090565b905600a165627a7a723058209be54aa95b5c24847c1e83293bdb15a7d1e17af2e9ee8e522e6274911b1dbe3d0029",
  "source": "pragma solidity ^0.4.18;\n\ncontract CapACToken {\n\n\t/*\n\t\tDefine struct to represent capability token data.\n\t*/\n\tstruct CapabilityToken {\n\t\tuint id;\t\t\t\t// token id\n\t\tbool initialized;\t\t//check whether token has been initialized\n\t\tbool isValid;\t\t\t// flage to indicate whether token valid, used for temporary dispense operation\n\t\tuint256 issuedate;\t\t// token issued date\n\t\tuint256 expireddate;\t// token expired date\n\t\tstring authorization;\n\t}\n\n\t// --------------------------------- Global state variables -------------------------\n\taddress private constant supervisor = 0x3d40fad73c91aed74ffbc1f09f4cde7cce533671;\n\taddress private VZone_master = address(0);\n\tmapping(address => CapabilityToken) captokens;\n\n\t// event handle function\n\tevent OnValueChanged(address indexed _from, uint _value);\n\n\t/* \n\t\tfunction: query token data given address and return general token data\n\t*/\n\tfunction getCapTokenStatus(address addr_node) public constant returns (uint, \n\t\t\t\t\t\t\t\t\t\t\t\t\t\t\t\t\t\t\taddress,\n\t\t\t\t\t\t\t\t\t\t\t\t\t\t\t\t\t\t\tbool, \n\t\t\t\t\t\t\t\t\t\t\t\t\t\t\t\t\t\t\tbool, \n\t\t\t\t\t\t\t\t\t\t\t\t\t\t\t\t\t\t\tuint256, \n\t\t\t\t\t\t\t\t\t\t\t\t\t\t\t\t\t\t\tuint256,\n\t\t\t\t\t\t\t\t\t\t\t\t\t\t\t\t\t\t\tstring) {\n\n\t\t\treturn(\tcaptokens[addr_node].id, \n\t\t\t\t\tVZone_master,\n\t\t\t\t\tcaptokens[addr_node].initialized,\n\t\t\t\t\tcaptokens[addr_node].isValid,\n\t\t\t\t\tcaptokens[addr_node].issuedate,\n\t\t\t\t\tcaptokens[addr_node].expireddate,\n\t\t\t\t\tcaptokens[addr_node].authorization\n\t\t\t\t\t);\n\t}\n\n\t/*\n\tFunction: set VZone master to mamage token.\n\t*/\n\tfunction assignVZoneMaster(address addr_master) public returns (bool) {\n\t\t// only allow for supervisor\n\t\tif( supervisor == msg.sender) {\n\t\t\t//set default access right\n\t\t\tVZone_master = addr_master;\t\n\n\t\t\treturn true;\n\n\t\t}\n\t\telse {\n\t\t\treturn false;\n\t\t}\n\t}\n\n\t/*\n\tFunction: set VZone master to mamage token .\n\t*/\n\tfunction revokeVZoneMaster() public returns (bool) {\n\t\t// only allow for supervisor\n\t\tif( supervisor == msg.sender) {\n\t\t\t//set default access right\n\t\t\tVZone_master = address(0);\t\n\n\t\t\treturn true;\n\n\t\t}\n\t\telse {\n\t\t\treturn false;\n\t\t}\n\t}\n\n\n\t/*\n\tFunction: Initilized token data given address.\n\t*/\n\tfunction initCapToken(address addr_node) public returns (bool) {\n\t\t// only allow for supervisor or domain master\n\t\tif( (supervisor == msg.sender) ||( VZone_master == msg.sender )) {\n\t\t\t//set id and initialized flag\n\t\t\tcaptokens[addr_node].id = 1;\n\t\t\tcaptokens[addr_node].initialized = true;\n\n\t\t\t//disable token\n\t\t\tcaptokens[addr_node].isValid = false;\n\n\t\t\t//captokens[addr_node].issuedate = now;\n\t\t\t//captokens[addr_node].expireddate = now + 1 days;\n\n\t\t\t//set default access right\n\t\t\tcaptokens[addr_node].authorization = \"\";\t\n\n\t\t\t// notify OnValueChanged event\n\t\t\tOnValueChanged(addr_node, captokens[addr_node].id);\t\n\t\t\treturn true;\n\n\t\t}\n\t\telse {\n\t\t\treturn false;\n\t\t}\n\t}\n\n\t// Set isValid flag call function\n\tfunction setCapToken_isValid(address addr_node, bool isValid) public returns (bool) {\n\t\t// only allow for supervisor or domain master\n\t\tif( (supervisor == msg.sender) ||( VZone_master == msg.sender )) {\n\t\t\tcaptokens[addr_node].id += 1;\n\t\t\tcaptokens[addr_node].isValid = isValid;\n\t\t\tOnValueChanged(addr_node, captokens[addr_node].id);\n\t\t\treturn true;\n\t\t}\n\t\telse{\n\t\t\treturn false;\n\t\t}\n\t\t\n\t}\n\n\t// Set time limitation call function\n\tfunction setCapToken_expireddate(address addr_node, \n\t\t\t\t\t\t\t\t\tuint256 issueddate, \n\t\t\t\t\t\t\t\t\tuint256 expireddate) public returns (bool) {\n\t\t// only allow for supervisor or domain master\n\t\tif( (supervisor == msg.sender) ||( VZone_master == msg.sender )) {\n\t\t\tcaptokens[addr_node].id += 1;\n\t\t\tcaptokens[addr_node].issuedate = issueddate;\n\t\t\tcaptokens[addr_node].expireddate = expireddate;\n\t\t\tOnValueChanged(addr_node, captokens[addr_node].id);\n\t\t\treturn true;\n\t\t}\n\t\telse {\n\t\t\treturn false;\n\t\t}\n\t}\n\n\t// Set accessright call function\n\tfunction setCapToken_authorization(address addr_node, \n\t\t\t\t\t\t\t\t\t\tstring accessright) public returns (bool) {\n\t\t// only allow for supervisor or domain master\n\t\tif( (supervisor == msg.sender) ||( VZone_master == msg.sender )) {\n\t\t\tcaptokens[addr_node].id += 1;\n\t\t\tcaptokens[addr_node].authorization = accessright;\n\t\t\tOnValueChanged(addr_node, captokens[addr_node].id);\n\t\t\treturn true;\n\t\t}\n\t\telse{\n\t\t\treturn false;\n\t\t}\n\t\t\n\t}\n}",
  "sourcePath": "/home/ronghua/Desktop/Github/Research/Security/py_dev/BC_DDDAS/Contracts/contracts/CapACToken.sol",
  "compiler": {
    "name": "solc",
    "version": "0.4.18+commit.9cf6e910.Emscripten.clang"
  },
  "schemaVersion": "1.0.1",
  "updatedAt": "2018-09-17T23:23:24.880Z"
}