{
  "contractName": "AuthToken",
  "abi": [
    {
      "anonymous": false,
      "inputs": [
        {
          "indexed": true,
          "name": "_from",
          "type": "address"
        },
        {
          "indexed": false,
          "name": "_value",
          "type": "uint256"
        }
      ],
      "name": "OnValueChanged",
      "type": "event"
    },
    {
      "constant": true,
      "inputs": [],
      "name": "getValidMaster",
      "outputs": [
        {
          "name": "",
          "type": "address[5]"
        }
      ],
      "payable": false,
      "stateMutability": "view",
      "type": "function"
    },
    {
      "constant": true,
      "inputs": [
        {
          "name": "Vzone_ID",
          "type": "string"
        }
      ],
      "name": "getVTrustZone",
      "outputs": [
        {
          "name": "",
          "type": "address"
        }
      ],
      "payable": false,
      "stateMutability": "view",
      "type": "function"
    },
    {
      "constant": true,
      "inputs": [
        {
          "name": "addr_node",
          "type": "address"
        }
      ],
      "name": "getNode",
      "outputs": [
        {
          "name": "",
          "type": "uint256"
        },
        {
          "name": "",
          "type": "string"
        }
      ],
      "payable": false,
      "stateMutability": "view",
      "type": "function"
    },
    {
      "constant": false,
      "inputs": [
        {
          "name": "Vzone_ID",
          "type": "string"
        }
      ],
      "name": "initVTrustZone",
      "outputs": [
        {
          "name": "",
          "type": "bool"
        }
      ],
      "payable": false,
      "stateMutability": "nonpayable",
      "type": "function"
    },
    {
      "constant": false,
      "inputs": [
        {
          "name": "addr_master",
          "type": "address"
        }
      ],
      "name": "addMasterNode",
      "outputs": [
        {
          "name": "",
          "type": "bool"
        }
      ],
      "payable": false,
      "stateMutability": "nonpayable",
      "type": "function"
    },
    {
      "constant": false,
      "inputs": [
        {
          "name": "addr_master",
          "type": "address"
        }
      ],
      "name": "removeMasterNode",
      "outputs": [
        {
          "name": "",
          "type": "bool"
        }
      ],
      "payable": false,
      "stateMutability": "nonpayable",
      "type": "function"
    },
    {
      "constant": false,
      "inputs": [
        {
          "name": "Vzone_ID",
          "type": "string"
        }
      ],
      "name": "createVZone",
      "outputs": [
        {
          "name": "",
          "type": "bool"
        }
      ],
      "payable": false,
      "stateMutability": "nonpayable",
      "type": "function"
    },
    {
      "constant": false,
      "inputs": [
        {
          "name": "Vzone_ID",
          "type": "string"
        },
        {
          "name": "addr_master",
          "type": "address"
        }
      ],
      "name": "changeVZoneMaster",
      "outputs": [
        {
          "name": "",
          "type": "bool"
        }
      ],
      "payable": false,
      "stateMutability": "nonpayable",
      "type": "function"
    },
    {
      "constant": false,
      "inputs": [
        {
          "name": "Vzone_ID",
          "type": "string"
        }
      ],
      "name": "removeVZone",
      "outputs": [
        {
          "name": "",
          "type": "bool"
        }
      ],
      "payable": false,
      "stateMutability": "nonpayable",
      "type": "function"
    },
    {
      "constant": false,
      "inputs": [
        {
          "name": "Vzone_ID",
          "type": "string"
        },
        {
          "name": "node_addr",
          "type": "address"
        }
      ],
      "name": "joinVZone",
      "outputs": [
        {
          "name": "",
          "type": "bool"
        }
      ],
      "payable": false,
      "stateMutability": "nonpayable",
      "type": "function"
    },
    {
      "constant": false,
      "inputs": [
        {
          "name": "Vzone_ID",
          "type": "string"
        },
        {
          "name": "node_addr",
          "type": "address"
        }
      ],
      "name": "leaveVZone",
      "outputs": [
        {
          "name": "",
          "type": "bool"
        }
      ],
      "payable": false,
      "stateMutability": "nonpayable",
      "type": "function"
    }
  ],
  "bytecode": "0x6060604052341561000f57600080fd5b6121888061001e6000396000f3006060604052600436106100af576000357c0100000000000000000000000000000000000000000000000000000000900463ffffffff16806312bed3ad146100b457806335c89453146101485780636b8a98a9146101bd5780639333651c1461020e5780639d2090481461025f5780639e50617814610318578063a494393f1461038d578063c00555e51461042a578063ceb068b6146104be578063dd9cf97114610552578063efe82c94146105a3575b600080fd5b34156100bf57600080fd5b61012e600480803590602001908201803590602001908080601f0160208091040260200160405190810160405280939291908181526020018383808284378201915050505050509190803573ffffffffffffffffffffffffffffffffffffffff16906020019091905050610618565b604051808215151515815260200191505060405180910390f35b341561015357600080fd5b6101a3600480803590602001908201803590602001908080601f0160208091040260200160405190810160405280939291908181526020018383808284378201915050505050509190505061083d565b604051808215151515815260200191505060405180910390f35b34156101c857600080fd5b6101f4600480803573ffffffffffffffffffffffffffffffffffffffff16906020019091905050610be3565b604051808215151515815260200191505060405180910390f35b341561021957600080fd5b610221610d3e565b6040518082600560200280838360005b8381101561024c578082015181840152602081019050610231565b5050505090500191505060405180910390f35b341561026a57600080fd5b610296600480803573ffffffffffffffffffffffffffffffffffffffff16906020019091905050610dbf565b6040518083815260200180602001828103825283818151815260200191508051906020019080838360005b838110156102dc5780820151818401526020810190506102c1565b50505050905090810190601f1680156103095780820380516001836020036101000a031916815260200191505b50935050505060405180910390f35b341561032357600080fd5b610373600480803590602001908201803590602001908080601f01602080910402602001604051908101604052809392919081815260200183838082843782019150505050505091905050610ef3565b604051808215151515815260200191505060405180910390f35b341561039857600080fd5b6103e8600480803590602001908201803590602001908080601f016020809104026020016040519081016040528093929190818152602001838380828437820191505050505050919050506111fc565b604051808273ffffffffffffffffffffffffffffffffffffffff1673ffffffffffffffffffffffffffffffffffffffff16815260200191505060405180910390f35b341561043557600080fd5b6104a4600480803590602001908201803590602001908080601f0160208091040260200160405190810160405280939291908181526020018383808284378201915050505050509190803573ffffffffffffffffffffffffffffffffffffffff16906020019091905050611294565b604051808215151515815260200191505060405180910390f35b34156104c957600080fd5b610538600480803590602001908201803590602001908080601f0160208091040260200160405190810160405280939291908181526020018383808284378201915050505050509190803573ffffffffffffffffffffffffffffffffffffffff169060200190919050506116c4565b604051808215151515815260200191505060405180910390f35b341561055d57600080fd5b610589600480803573ffffffffffffffffffffffffffffffffffffffff169060200190919050506118d9565b604051808215151515815260200191505060405180910390f35b34156105ae57600080fd5b6105fe600480803590602001908201803590602001908080601f01602080910402602001604051908101604052809392919081815260200183838082843782019150505050505091905050611c38565b604051808215151515815260200191505060405180910390f35b60003373ffffffffffffffffffffffffffffffffffffffff1673dcbe88e1ba58cd7eae1ec9cc9149b5788c7b648573ffffffffffffffffffffffffffffffffffffffff16148061072157503373ffffffffffffffffffffffffffffffffffffffff166005846040518082805190602001908083835b6020831015156106b2578051825260208201915060208101905060208303925061068d565b6001836020036101000a038019825116818451168082178552505050505050905001915050908152602001604051809103902060010160009054906101000a900473ffffffffffffffffffffffffffffffffffffffff1673ffffffffffffffffffffffffffffffffffffffff16145b15610832576002600660008473ffffffffffffffffffffffffffffffffffffffff1673ffffffffffffffffffffffffffffffffffffffff168152602001908152602001600020600001541415610829576000600660008473ffffffffffffffffffffffffffffffffffffffff1673ffffffffffffffffffffffffffffffffffffffff168152602001908152602001600020600001819055506020604051908101604052806000815250600660008473ffffffffffffffffffffffffffffffffffffffff1673ffffffffffffffffffffffffffffffffffffffff168152602001908152602001600020600101908051906020019061081f929190612065565b5060019050610837565b60009050610837565b600090505b92915050565b6000803373ffffffffffffffffffffffffffffffffffffffff1673dcbe88e1ba58cd7eae1ec9cc9149b5788c7b648573ffffffffffffffffffffffffffffffffffffffff16148061095f57506001151561089633611fcf565b151514801561095e57503373ffffffffffffffffffffffffffffffffffffffff166005846040518082805190602001908083835b6020831015156108ef57805182526020820191506020810190506020830392506108ca565b6001836020036101000a038019825116818451168082178552505050505050905001915050908152602001604051809103902060010160009054906101000a900473ffffffffffffffffffffffffffffffffffffffff1673ffffffffffffffffffffffffffffffffffffffff16145b5b15610bd8576005836040518082805190602001908083835b60208310151561099c5780518252602082019150602081019050602083039250610977565b6001836020036101000a038019825116818451168082178552505050505050905001915050908152602001604051809103902060010160009054906101000a900473ffffffffffffffffffffffffffffffffffffffff16905060016005846040518082805190602001908083835b602083101515610a2f5780518252602082019150602081019050602083039250610a0a565b6001836020036101000a03801982511681845116808217855250505050505090500191505090815260200160405180910390206000016000828254019250508190555060006005846040518082805190602001908083835b602083101515610aac5780518252602082019150602081019050602083039250610a87565b6001836020036101000a038019825116818451168082178552505050505050905001915050908152602001604051809103902060010160006101000a81548173ffffffffffffffffffffffffffffffffffffffff021916908373ffffffffffffffffffffffffffffffffffffffff1602179055506000600660008373ffffffffffffffffffffffffffffffffffffffff1673ffffffffffffffffffffffffffffffffffffffff168152602001908152602001600020600001819055506020604051908101604052806000815250600660008373ffffffffffffffffffffffffffffffffffffffff1673ffffffffffffffffffffffffffffffffffffffff1681526020019081526020016000206001019080519060200190610bce929190612065565b5060019150610bdd565b600091505b50919050565b6000803373ffffffffffffffffffffffffffffffffffffffff1673dcbe88e1ba58cd7eae1ec9cc9149b5788c7b648573ffffffffffffffffffffffffffffffffffffffff161415610d335760011515610c3b84611fcf565b15151415610c4c5760009150610d38565b600090505b6005811015610d2a57600073ffffffffffffffffffffffffffffffffffffffff16600082600581101515610c8157fe5b0160009054906101000a900473ffffffffffffffffffffffffffffffffffffffff1673ffffffffffffffffffffffffffffffffffffffff16141515610cc557610d1d565b82600082600581101515610cd557fe5b0160006101000a81548173ffffffffffffffffffffffffffffffffffffffff021916908373ffffffffffffffffffffffffffffffffffffffff16021790555060019150610d38565b8080600101915050610c51565b60009150610d38565b600091505b50919050565b610d466120e5565b6000600580602002604051908101604052809291908260058015610db5576020028201915b8160009054906101000a900473ffffffffffffffffffffffffffffffffffffffff1673ffffffffffffffffffffffffffffffffffffffff1681526020019060010190808311610d6b575b5050505050905090565b6000610dc9612123565b600660008473ffffffffffffffffffffffffffffffffffffffff1673ffffffffffffffffffffffffffffffffffffffff16815260200190815260200160002060000154600660008573ffffffffffffffffffffffffffffffffffffffff1673ffffffffffffffffffffffffffffffffffffffff168152602001908152602001600020600101808054600181600116156101000203166002900480601f016020809104026020016040519081016040528092919081815260200182805460018160011615610100020316600290048015610ee35780601f10610eb857610100808354040283529160200191610ee3565b820191906000526020600020905b815481529060010190602001808311610ec657829003601f168201915b5050505050905091509150915091565b60003373ffffffffffffffffffffffffffffffffffffffff1673dcbe88e1ba58cd7eae1ec9cc9149b5788c7b648573ffffffffffffffffffffffffffffffffffffffff161480610f4f575060011515610f4b33611fcf565b1515145b156111f257600073ffffffffffffffffffffffffffffffffffffffff166005836040518082805190602001908083835b602083101515610fa45780518252602082019150602081019050602083039250610f7f565b6001836020036101000a038019825116818451168082178552505050505050905001915050908152602001604051809103902060010160009054906101000a900473ffffffffffffffffffffffffffffffffffffffff1673ffffffffffffffffffffffffffffffffffffffff1614156111e95760016005836040518082805190602001908083835b602083101515611051578051825260208201915060208101905060208303925061102c565b6001836020036101000a038019825116818451168082178552505050505050905001915050908152602001604051809103902060000160008282540192505081905550336005836040518082805190602001908083835b6020831015156110cd57805182526020820191506020810190506020830392506110a8565b6001836020036101000a038019825116818451168082178552505050505050905001915050908152602001604051809103902060010160006101000a81548173ffffffffffffffffffffffffffffffffffffffff021916908373ffffffffffffffffffffffffffffffffffffffff1602179055506001600660003373ffffffffffffffffffffffffffffffffffffffff1673ffffffffffffffffffffffffffffffffffffffff1681526020019081526020016000206000018190555081600660003373ffffffffffffffffffffffffffffffffffffffff1673ffffffffffffffffffffffffffffffffffffffff16815260200190815260200160002060010190805190602001906111df929190612065565b50600190506111f7565b600090506111f7565b600090505b919050565b60006005826040518082805190602001908083835b6020831015156112365780518252602082019150602081019050602083039250611211565b6001836020036101000a038019825116818451168082178552505050505050905001915050908152602001604051809103902060010160009054906101000a900473ffffffffffffffffffffffffffffffffffffffff169050919050565b6000803373ffffffffffffffffffffffffffffffffffffffff1673dcbe88e1ba58cd7eae1ec9cc9149b5788c7b648573ffffffffffffffffffffffffffffffffffffffff161480156113a15750600073ffffffffffffffffffffffffffffffffffffffff166005856040518082805190602001908083835b602083101515611331578051825260208201915060208101905060208303925061130c565b6001836020036101000a038019825116818451168082178552505050505050905001915050908152602001604051809103902060010160009054906101000a900473ffffffffffffffffffffffffffffffffffffffff1673ffffffffffffffffffffffffffffffffffffffff1614155b156116b8576005846040518082805190602001908083835b6020831015156113de57805182526020820191506020810190506020830392506113b9565b6001836020036101000a038019825116818451168082178552505050505050905001915050908152602001604051809103902060010160009054906101000a900473ffffffffffffffffffffffffffffffffffffffff1690506000600660008373ffffffffffffffffffffffffffffffffffffffff1673ffffffffffffffffffffffffffffffffffffffff168152602001908152602001600020600001819055506020604051908101604052806000815250600660008373ffffffffffffffffffffffffffffffffffffffff1673ffffffffffffffffffffffffffffffffffffffff16815260200190815260200160002060010190805190602001906114e5929190612065565b506001600660008573ffffffffffffffffffffffffffffffffffffffff1673ffffffffffffffffffffffffffffffffffffffff1681526020019081526020016000206000018190555083600660008573ffffffffffffffffffffffffffffffffffffffff1673ffffffffffffffffffffffffffffffffffffffff1681526020019081526020016000206001019080519060200190611584929190612065565b5060016005856040518082805190602001908083835b6020831015156115bf578051825260208201915060208101905060208303925061159a565b6001836020036101000a038019825116818451168082178552505050505050905001915050908152602001604051809103902060000160008282540192505081905550826005856040518082805190602001908083835b60208310151561163b5780518252602082019150602081019050602083039250611616565b6001836020036101000a038019825116818451168082178552505050505050905001915050908152602001604051809103902060010160006101000a81548173ffffffffffffffffffffffffffffffffffffffff021916908373ffffffffffffffffffffffffffffffffffffffff160217905550600191506116bd565b600091505b5092915050565b60003373ffffffffffffffffffffffffffffffffffffffff1673dcbe88e1ba58cd7eae1ec9cc9149b5788c7b648573ffffffffffffffffffffffffffffffffffffffff1614806117cd57503373ffffffffffffffffffffffffffffffffffffffff166005846040518082805190602001908083835b60208310151561175e5780518252602082019150602081019050602083039250611739565b6001836020036101000a038019825116818451168082178552505050505050905001915050908152602001604051809103902060010160009054906101000a900473ffffffffffffffffffffffffffffffffffffffff1673ffffffffffffffffffffffffffffffffffffffff16145b156118ce576000600660008473ffffffffffffffffffffffffffffffffffffffff1673ffffffffffffffffffffffffffffffffffffffff1681526020019081526020016000206000015414156118c5576002600660008473ffffffffffffffffffffffffffffffffffffffff1673ffffffffffffffffffffffffffffffffffffffff1681526020019081526020016000206000018190555082600660008473ffffffffffffffffffffffffffffffffffffffff1673ffffffffffffffffffffffffffffffffffffffff16815260200190815260200160002060010190805190602001906118bb929190612065565b50600190506118d3565b600090506118d3565b600090505b92915050565b60008060003373ffffffffffffffffffffffffffffffffffffffff1673dcbe88e1ba58cd7eae1ec9cc9149b5788c7b648573ffffffffffffffffffffffffffffffffffffffff161415611c2c57600660008573ffffffffffffffffffffffffffffffffffffffff1673ffffffffffffffffffffffffffffffffffffffff16815260200190815260200160002060010191506000600660008673ffffffffffffffffffffffffffffffffffffffff1673ffffffffffffffffffffffffffffffffffffffff168152602001908152602001600020600001819055506020604051908101604052806000815250600660008673ffffffffffffffffffffffffffffffffffffffff1673ffffffffffffffffffffffffffffffffffffffff1681526020019081526020016000206001019080519060200190611a18929190612065565b5060016005836040518082805460018160011615610100020316600290048015611a795780601f10611a57576101008083540402835291820191611a79565b820191906000526020600020905b815481529060010190602001808311611a65575b505091505090815260200160405180910390206000016000828254019250508190555060006005836040518082805460018160011615610100020316600290048015611afc5780601f10611ada576101008083540402835291820191611afc565b820191906000526020600020905b815481529060010190602001808311611ae8575b5050915050908152602001604051809103902060010160006101000a81548173ffffffffffffffffffffffffffffffffffffffff021916908373ffffffffffffffffffffffffffffffffffffffff160217905550600090505b6005811015611c23578373ffffffffffffffffffffffffffffffffffffffff16600082600581101515611b8457fe5b0160009054906101000a900473ffffffffffffffffffffffffffffffffffffffff1673ffffffffffffffffffffffffffffffffffffffff161415611c165760008082600581101515611bd257fe5b0160006101000a81548173ffffffffffffffffffffffffffffffffffffffff021916908373ffffffffffffffffffffffffffffffffffffffff160217905550611c23565b8080600101915050611b55565b60019250611c31565b600092505b5050919050565b60008060003373ffffffffffffffffffffffffffffffffffffffff1673dcbe88e1ba58cd7eae1ec9cc9149b5788c7b648573ffffffffffffffffffffffffffffffffffffffff161415611fc3576005846040518082805190602001908083835b602083101515611cbd5780518252602082019150602081019050602083039250611c98565b6001836020036101000a038019825116818451168082178552505050505050905001915050908152602001604051809103902060010160009054906101000a900473ffffffffffffffffffffffffffffffffffffffff1691506000600660008473ffffffffffffffffffffffffffffffffffffffff1673ffffffffffffffffffffffffffffffffffffffff168152602001908152602001600020600001819055506020604051908101604052806000815250600660008473ffffffffffffffffffffffffffffffffffffffff1673ffffffffffffffffffffffffffffffffffffffff1681526020019081526020016000206001019080519060200190611dc4929190612065565b5060006005856040518082805190602001908083835b602083101515611dff5780518252602082019150602081019050602083039250611dda565b6001836020036101000a03801982511681845116808217855250505050505090500191505090815260200160405180910390206000018190555060006005856040518082805190602001908083835b602083101515611e735780518252602082019150602081019050602083039250611e4e565b6001836020036101000a038019825116818451168082178552505050505050905001915050908152602001604051809103902060010160006101000a81548173ffffffffffffffffffffffffffffffffffffffff021916908373ffffffffffffffffffffffffffffffffffffffff160217905550600090505b6005811015611fba578173ffffffffffffffffffffffffffffffffffffffff16600082600581101515611f1b57fe5b0160009054906101000a900473ffffffffffffffffffffffffffffffffffffffff1673ffffffffffffffffffffffffffffffffffffffff161415611fad5760008082600581101515611f6957fe5b0160006101000a81548173ffffffffffffffffffffffffffffffffffffffff021916908373ffffffffffffffffffffffffffffffffffffffff160217905550611fba565b8080600101915050611eec565b60019250611fc8565b600092505b5050919050565b600080600090505b600581101561205a578273ffffffffffffffffffffffffffffffffffffffff1660008260058110151561200657fe5b0160009054906101000a900473ffffffffffffffffffffffffffffffffffffffff1673ffffffffffffffffffffffffffffffffffffffff16141561204d576001915061205f565b8080600101915050611fd7565b600091505b50919050565b828054600181600116156101000203166002900490600052602060002090601f016020900481019282601f106120a657805160ff19168380011785556120d4565b828001600101855582156120d4579182015b828111156120d35782518255916020019190600101906120b8565b5b5090506120e19190612137565b5090565b60a0604051908101604052806005905b600073ffffffffffffffffffffffffffffffffffffffff168152602001906001900390816120f55790505090565b602060405190810160405280600081525090565b61215991905b8082111561215557600081600090555060010161213d565b5090565b905600a165627a7a72305820927516eeec5c77d52a861d2c9b9aebc97567689aea5b3f50c86b615a256cabd70029",
  "source": "pragma solidity ^0.4.18;\n\ncontract AuthToken {\n\n\t/*\n\t\tDefine struct to represent virtual trust zone data.\n\t*/\n\tstruct VTrustZone {\n\t\tuint uid;\t\t\t\t// auto incremental number.\n\t\taddress master;\t\t\t// domain master address\n\t}\n\n\t/*\n\t\tDefine struct to represent node data: master or follewers.\n\t*/\n\tstruct Node {\n\t\tuint node_type;\t\t\t\t// 0: undefined; 1: master;  2: follower.\n\t\tstring VZoneID;\t\t\t// Joined virtual trust zone. each node is allowed to join multiple Voznes\n\t}\n\n\n\t// Global state variables\n\taddress private constant supervisor = 0xdcbe88e1ba58cd7eae1ec9cc9149b5788c7b6485;\n\taddress[5] validMaster;\t\t\t\t\t// used for managing valid master, maximum is 5\n\tuint private constant MAX_MASTERS = 5;\n\t//uint private constant MAX_ZONES = 3;\t// maximum zones that are allowed to join for each node.\n\tmapping(string => VTrustZone) Vzone;\t// associate with unique Vzone_ID with each Vzone data\n\tmapping(address => Node) Vnode;\t\t\t// associate with unique address with node data\n\n\t\n\n\t// event handle function\n\tevent OnValueChanged(address indexed _from, uint _value);\n\n\t/* \n\t\tfunction: check whether master is authorized by supervisor\n\t*/\n\tfunction isValidMaster(address addr_master) private constant returns (bool) {\n\t\tfor(uint i = 0; i < MAX_MASTERS; i++) { \n\t\t\t\tif(validMaster[i] == addr_master) {\n\t\t\t\t\treturn true;\n\t\t\t\t}\n\t\t\t}\t\n\t\treturn false;\n\t}\n\n\t/* \n\t\tfunction: query valid master list from validMaster\n\t*/\n\tfunction getValidMaster() public constant returns (address[5]) {\n\n\t\t\treturn(validMaster);\n\t}\n\n\t/* \n\t\tfunction: query zone data given unique Vzone_ID\n\t*/\n\tfunction getVTrustZone(string Vzone_ID) public constant returns (address) {\n\n\t\t\treturn(Vzone[Vzone_ID].master);\n\t}\n\n\t/* \n\t\tfunction: query Vnode data given address\n\t*/\n\tfunction getNode(address addr_node) public constant returns (uint, string) {\n\t\t\treturn(Vnode[addr_node].node_type, Vnode[addr_node].VZoneID);\n\t}\n\n\n\t/*\n\tFunction: Initilized zone data given address.\n\t*/\n\tfunction initVTrustZone(string Vzone_ID) public returns (bool) {\n\t\tif( supervisor == msg.sender) {\n\t\t\t// get master of Vzone\n\t\t\taddress Vzone_master = Vzone[Vzone_ID].master;\n\n\t\t\t// initialize Vzone_master node data\n\t\t\tVnode[Vzone_master].node_type = 0;\n\t\t\tVnode[Vzone_master].VZoneID = '';\n\n\t\t\t// initialize Vzone data\n\t\t\tVzone[Vzone_ID].uid =0;\n\t\t\tVzone[Vzone_ID].master = address(0);\n\n\t\t\t// initialize all elements in validMaster as address(0)\n\t\t\tfor(uint i = 0; i < MAX_MASTERS; i++) { \n\t\t\t\tif(validMaster[i] == Vzone_master) {\n\t\t\t\t\tvalidMaster[i] = address(0);\n\t\t\t\t\tbreak;\n\t\t\t\t}\t\t\t\t\n\t\t\t}\n\n\t\t\t// notify OnValueChanged event\n\t\t\t//OnValueChanged(recipient, indextokens[str_index].id);\t\n\t\t\treturn true;\n\n\t\t}\n\t\telse {\n\t\t\treturn false;\n\t\t}\n\t}\n\n\n\t/*\n\tFunction: Add master node, which is only allowed for supervisor.\n\t*/\t\n\tfunction addMasterNode(address addr_master)  public returns (bool) {\n\t\tif( supervisor == msg.sender) {\n\t\t\t// check whether master has been authorized, avoid duplicated masters\n\t\t\tif(isValidMaster(addr_master) == true) {\n\t\t\t\treturn false; \n\t\t\t}\t\n\t\t\t// for each node in validMaster to find empty slot to add master\n\t\t\tfor(uint i = 0; i < MAX_MASTERS; i++) { \n\t\t\t\t// check if node[i] is empty\n\t\t\t\tif(validMaster[i] != address(0)) {\n\t\t\t\t\t//find next valid one\n\t\t\t\t\tcontinue;\n\t\t\t\t}\n\t\t\t\telse {\n\t\t\t\t\t// add addr_master to empty slot\n\t\t\t\t\tvalidMaster[i] = addr_master;\n\t\t\t\t\treturn true;\n\t\t\t\t}\n\t\t\t}\n\t\t\t// no empty slot for add master, return false\n\t\t\treturn false;\t\t\n\t\t}\n\t\telse {\n\t\t\treturn false;\n\t\t}\n\n\t}\n\n\t/*\n\tFunction: Remove master node from validMaster.\n\t*/\t\n\tfunction removeMasterNode(address addr_master)  public returns (bool) {\n\t\tif(supervisor == msg.sender) {\n\n\t\t\t// get Vzone_ID that is associated with master \n\t\t\tstring VZone_ID = Vnode[addr_master].VZoneID;\n\n\t\t\t// clear Vzone_master node data\n\t\t\tVnode[addr_master].node_type = 0;\n\t\t\tVnode[addr_master].VZoneID = '';\n\n\t\t\t// clear Vzone data\n\t\t\tVzone[VZone_ID].uid += 1;\n\t\t\tVzone[VZone_ID].master = address(0);\n\n\t\t\t// remove master from validMaster\n\t\t\tfor(uint i = 0; i < MAX_MASTERS; i++) { \n\t\t\t\tif(validMaster[i] == addr_master) {\n\t\t\t\t\tvalidMaster[i] = address(0);\n\t\t\t\t\tbreak;\n\t\t\t\t}\t\t\t\t\n\t\t\t}\n\t\t\treturn true;\n\t\t}\n\t\telse {\n\t\t\treturn false;\n\t\t}\t\n\t}\n\n\t/*\n\tFunction: Create zone data given Vzone_ID.\n\t*/\n\tfunction createVZone(string Vzone_ID) public returns (bool) {\n\t\t// only allow for supervisor or valid master\n\t\tif((supervisor == msg.sender) || (isValidMaster(msg.sender) == true)) {\n\t\t\t// check whether virtual zone has been created by master\n\t\t\tif(Vzone[Vzone_ID].master == address(0)) {\n\t\t\t\t// set Vzone data by associating master with Vzone_ID\n\t\t\t\tVzone[Vzone_ID].uid += 1;\n\t\t\t\tVzone[Vzone_ID].master = msg.sender;\n\n\t\t\t\t// set Vzone_master node data\n\t\t\t\tVnode[msg.sender].node_type = 1;\n\t\t\t\tVnode[msg.sender].VZoneID = Vzone_ID;\n\n\t\t\t\treturn true;\n\t\t\t}\n\n\t\t\treturn false;\n\t\t}\n\t\telse {\n\t\t\treturn false;\n\t\t}\n\t}\n\n\t/*\n\tFunction: change master of Vzone data given Vzone_ID.\n\t*/\n\tfunction changeVZoneMaster(string Vzone_ID, address addr_master) public returns (bool) {\n\t\t// only allow for supervisor, and Vzone has created.\n\t\tif( (supervisor == msg.sender) && (Vzone[Vzone_ID].master != address(0)) ) {\n\t\t\t\n\t\t\t// get current master\n\t\t\taddress curr_master = Vzone[Vzone_ID].master;\n\n\t\t\t// clear current Vzone_master node data\n\t\t\tVnode[curr_master].node_type = 0;\n\t\t\tVnode[curr_master].VZoneID = '';\n\n\t\t\t// set new Vzone_master node data\n\t\t\tVnode[addr_master].node_type = 1;\n\t\t\tVnode[addr_master].VZoneID = Vzone_ID;\n\n\t\t\t// change master in Vzone data\n\t\t\tVzone[Vzone_ID].uid += 1;\n\t\t\tVzone[Vzone_ID].master = addr_master;\n\n\t\t\treturn true;\n\t\t}\n\t\telse {\n\t\t\treturn false;\n\t\t}\n\t}\n\n\t/*\n\tFunction: Clear zone data given Vzone_ID.\n\t*/\n\tfunction removeVZone(string Vzone_ID) public returns (bool) {\n\t\t// only allow for supervisor or valid master who creates the virtual zone\n\t\tif((supervisor == msg.sender) || \n\t\t\t((isValidMaster(msg.sender) == true)) && (Vzone[Vzone_ID].master == msg.sender)) {\n\n\t\t\t\t// get current master\n\t\t\t\taddress curr_master = Vzone[Vzone_ID].master;\t\n\n\t\t\t\t// clear Vzone data\n\t\t\t\tVzone[Vzone_ID].uid += 1;\n\t\t\t\tVzone[Vzone_ID].master = address(0);\n\n\t\t\t\t// clear current Vzone_master node data\n\t\t\t\tVnode[curr_master].node_type = 0;\n\t\t\t\tVnode[curr_master].VZoneID = '';\n\n\t\t\t\treturn true;\n\t\t}\n\t\telse {\n\t\t\treturn false;\n\t\t}\n\t}\n\n\t/*\n\tFunction: join virtual zone by assigning Vzone_ID to follower address.\n\t*/\n\tfunction joinVZone(string Vzone_ID, address node_addr) public returns (bool) {\n\t\t// only allow for supervisor or master who creates Vzone\n\t\tif((supervisor == msg.sender) || (Vzone[Vzone_ID].master == msg.sender)) {\n\t\t\t// check if node has never joined any Vzone\n\t\t\tif(Vnode[node_addr].node_type == 0) {\n\t\t\t\t// set follower node data\n\t\t\t\tVnode[node_addr].node_type = 2;\n\t\t\t\tVnode[node_addr].VZoneID = Vzone_ID;\n\n\t\t\t\treturn true;\n\t\t\t}\n\t\t\treturn false;\n\t\t}\n\t\telse {\n\t\t\treturn false;\n\t\t}\n\t}\n\n\t/*\n\tFunction: leave virtual zone by clear follower node data.\n\t*/\n\tfunction leaveVZone(string Vzone_ID, address node_addr) public returns (bool) {\n\t\t// only allow for supervisor or master who creates Vzone\n\t\tif((supervisor == msg.sender) || (Vzone[Vzone_ID].master == msg.sender)) {\n\t\t\t// check if node is fellower of zone. Master cannot leave Vzone.\n\t\t\tif(Vnode[node_addr].node_type == 2) {\n\t\t\t\t// clear follower node data\n\t\t\t\tVnode[node_addr].node_type = 0;\n\t\t\t\tVnode[node_addr].VZoneID = '';\n\n\t\t\t\treturn true;\n\t\t\t}\n\t\t\treturn false;\n\t\t}\n\t\telse {\n\t\t\treturn false;\n\t\t}\n\t}\n\n}\n",
  "sourcePath": "/home/samuel/Desktop/Github/Microservices_dev/Contract_dev/contracts/AuthToken.sol",
  "compiler": {
    "name": "solc",
    "version": "0.4.21+commit.dfe3193c.Emscripten.clang"
  },
  "schemaVersion": "2.0.0",
  "updatedAt": "2019-09-28T21:30:14.065Z"
}