{
  "contractName": "IndexToken",
  "abi": [
    {
      "anonymous": false,
      "inputs": [
        {
          "indexed": true,
          "name": "_from",
          "type": "address"
        },
        {
          "indexed": false,
          "name": "_value",
          "type": "uint256"
        }
      ],
      "name": "OnValueChanged",
      "type": "event"
    },
    {
      "constant": true,
      "inputs": [
        {
          "name": "str_index",
          "type": "string"
        }
      ],
      "name": "getIndexToken",
      "outputs": [
        {
          "name": "",
          "type": "uint256"
        },
        {
          "name": "",
          "type": "string"
        }
      ],
      "payable": false,
      "stateMutability": "view",
      "type": "function"
    },
    {
      "constant": true,
      "inputs": [],
      "name": "getAuthorizedNodes",
      "outputs": [
        {
          "name": "",
          "type": "address[5]"
        }
      ],
      "payable": false,
      "stateMutability": "view",
      "type": "function"
    },
    {
      "constant": false,
      "inputs": [
        {
          "name": "recipient",
          "type": "address"
        },
        {
          "name": "str_index",
          "type": "string"
        }
      ],
      "name": "initIndexToken",
      "outputs": [
        {
          "name": "",
          "type": "bool"
        }
      ],
      "payable": false,
      "stateMutability": "nonpayable",
      "type": "function"
    },
    {
      "constant": false,
      "inputs": [
        {
          "name": "recipient",
          "type": "address"
        }
      ],
      "name": "addAuthorizedNodes",
      "outputs": [
        {
          "name": "",
          "type": "bool"
        }
      ],
      "payable": false,
      "stateMutability": "nonpayable",
      "type": "function"
    },
    {
      "constant": false,
      "inputs": [
        {
          "name": "recipient",
          "type": "address"
        }
      ],
      "name": "removeAuthorizedNodes",
      "outputs": [
        {
          "name": "",
          "type": "bool"
        }
      ],
      "payable": false,
      "stateMutability": "nonpayable",
      "type": "function"
    },
    {
      "constant": false,
      "inputs": [
        {
          "name": "recipient",
          "type": "address"
        },
        {
          "name": "str_index",
          "type": "string"
        },
        {
          "name": "hashed_index",
          "type": "string"
        }
      ],
      "name": "setIndexToken",
      "outputs": [
        {
          "name": "",
          "type": "bool"
        }
      ],
      "payable": false,
      "stateMutability": "nonpayable",
      "type": "function"
    }
  ],
  "bytecode": "0x6060604052341561000f57600080fd5b610f2e8061001e6000396000f300606060405260043610610078576000357c0100000000000000000000000000000000000000000000000000000000900463ffffffff1680634a88fd9e1461007d5780636b95d6d51461015a5780639f526293146101ab578063ad70ecc3146101fc578063c9b3f4f014610290578063f4b0e4d414610367575b600080fd5b341561008857600080fd5b6100d8600480803590602001908201803590602001908080601f016020809104026020016040519081016040528093929190818152602001838380828437820191505050505050919050506103b8565b6040518083815260200180602001828103825283818151815260200191508051906020019080838360005b8381101561011e578082015181840152602081019050610103565b50505050905090810190601f16801561014b5780820380516001836020036101000a031916815260200191505b50935050505060405180910390f35b341561016557600080fd5b61016d610544565b6040518082600560200280838360005b8381101561019857808201518184015260208101905061017d565b5050505090500191505060405180910390f35b34156101b657600080fd5b6101e2600480803573ffffffffffffffffffffffffffffffffffffffff1690602001909190505061068b565b604051808215151515815260200191505060405180910390f35b341561020757600080fd5b610276600480803573ffffffffffffffffffffffffffffffffffffffff1690602001909190803590602001908201803590602001908080601f016020809104026020016040519081016040528093929190818152602001838380828437820191505050505050919050506107e6565b604051808215151515815260200191505060405180910390f35b341561029b57600080fd5b61034d600480803573ffffffffffffffffffffffffffffffffffffffff1690602001909190803590602001908201803590602001908080601f0160208091040260200160405190810160405280939291908181526020018383808284378201915050505050509190803590602001908201803590602001908080601f01602080910402602001604051908101604052809392919081815260200183838082843782019150505050505091905050610a06565b604051808215151515815260200191505060405180910390f35b341561037257600080fd5b61039e600480803573ffffffffffffffffffffffffffffffffffffffff16906020019091905050610c38565b604051808215151515815260200191505060405180910390f35b60006103c2610e0b565b6000836040518082805190602001908083835b6020831015156103fa57805182526020820191506020810190506020830392506103d5565b6001836020036101000a0380198251168184511680821785525050505050509050019150509081526020016040518091039020600001546000846040518082805190602001908083835b6020831015156104695780518252602082019150602081019050602083039250610444565b6001836020036101000a0380198251168184511680821785525050505050509050019150509081526020016040518091039020600101808054600181600116156101000203166002900480601f0160208091040260200160405190810160405280929190818152602001828054600181600116156101000203166002900480156105345780601f1061050957610100808354040283529160200191610534565b820191906000526020600020905b81548152906001019060200180831161051757829003601f168201915b5050505050905091509150915091565b61054c610e1f565b60003373ffffffffffffffffffffffffffffffffffffffff1673dcbe88e1ba58cd7eae1ec9cc9149b5788c7b648573ffffffffffffffffffffffffffffffffffffffff161415610611576001600580602002604051908101604052809291908260058015610605576020028201915b8160009054906101000a900473ffffffffffffffffffffffffffffffffffffffff1673ffffffffffffffffffffffffffffffffffffffff16815260200190600101908083116105bb575b50505050509150610687565b8060058060200260405190810160405280929190826005801561067f576020028201915b8160009054906101000a900473ffffffffffffffffffffffffffffffffffffffff1673ffffffffffffffffffffffffffffffffffffffff1681526020019060010190808311610635575b505050505091505b5090565b6000803373ffffffffffffffffffffffffffffffffffffffff1673dcbe88e1ba58cd7eae1ec9cc9149b5788c7b648573ffffffffffffffffffffffffffffffffffffffff1614156107db57600115156106e384610d75565b151514156106f457600091506107e0565b600090505b60058110156107d257600073ffffffffffffffffffffffffffffffffffffffff1660018260058110151561072957fe5b0160009054906101000a900473ffffffffffffffffffffffffffffffffffffffff1673ffffffffffffffffffffffffffffffffffffffff1614151561076d576107c5565b8260018260058110151561077d57fe5b0160006101000a81548173ffffffffffffffffffffffffffffffffffffffff021916908373ffffffffffffffffffffffffffffffffffffffff160217905550600191506107e0565b80806001019150506106f9565b600091506107e0565b600091505b50919050565b60003373ffffffffffffffffffffffffffffffffffffffff1673dcbe88e1ba58cd7eae1ec9cc9149b5788c7b648573ffffffffffffffffffffffffffffffffffffffff1614156109fb57600080836040518082805190602001908083835b6020831015156108695780518252602082019150602081019050602083039250610844565b6001836020036101000a03801982511681845116808217855250505050505090500191505090815260200160405180910390206000018190555060206040519081016040528060008152506000836040518082805190602001908083835b6020831015156108ec57805182526020820191506020810190506020830392506108c7565b6001836020036101000a03801982511681845116808217855250505050505090500191505090815260200160405180910390206001019080519060200190610935929190610e5d565b508273ffffffffffffffffffffffffffffffffffffffff167f65dce515c55eb8d94c3ec733006907bb1a555ef5fb2ab7227019830d4f90a2596000846040518082805190602001908083835b6020831015156109a65780518252602082019150602081019050602083039250610981565b6001836020036101000a0380198251168184511680821785525050505050509050019150509081526020016040518091039020600001546040518082815260200191505060405180910390a260019050610a00565b600090505b92915050565b60003373ffffffffffffffffffffffffffffffffffffffff1673dcbe88e1ba58cd7eae1ec9cc9149b5788c7b648573ffffffffffffffffffffffffffffffffffffffff161480610a62575060011515610a5e85610d75565b1515145b15610c2c5760016000846040518082805190602001908083835b602083101515610aa15780518252602082019150602081019050602083039250610a7c565b6001836020036101000a038019825116818451168082178552505050505050905001915050908152602001604051809103902060000160008282540192505081905550816000846040518082805190602001908083835b602083101515610b1d5780518252602082019150602081019050602083039250610af8565b6001836020036101000a03801982511681845116808217855250505050505090500191505090815260200160405180910390206001019080519060200190610b66929190610e5d565b508373ffffffffffffffffffffffffffffffffffffffff167f65dce515c55eb8d94c3ec733006907bb1a555ef5fb2ab7227019830d4f90a2596000856040518082805190602001908083835b602083101515610bd75780518252602082019150602081019050602083039250610bb2565b6001836020036101000a0380198251168184511680821785525050505050509050019150509081526020016040518091039020600001546040518082815260200191505060405180910390a260019050610c31565b600090505b9392505050565b6000803373ffffffffffffffffffffffffffffffffffffffff1673dcbe88e1ba58cd7eae1ec9cc9149b5788c7b648573ffffffffffffffffffffffffffffffffffffffff161415610d6a57600090505b6005811015610d61578273ffffffffffffffffffffffffffffffffffffffff16600182600581101515610cb757fe5b0160009054906101000a900473ffffffffffffffffffffffffffffffffffffffff1673ffffffffffffffffffffffffffffffffffffffff16141515610cfb57610d54565b6000600182600581101515610d0c57fe5b0160006101000a81548173ffffffffffffffffffffffffffffffffffffffff021916908373ffffffffffffffffffffffffffffffffffffffff16021790555060019150610d6f565b8080600101915050610c88565b60009150610d6f565b600091505b50919050565b600080600090505b6005811015610e00578273ffffffffffffffffffffffffffffffffffffffff16600182600581101515610dac57fe5b0160009054906101000a900473ffffffffffffffffffffffffffffffffffffffff1673ffffffffffffffffffffffffffffffffffffffff161415610df35760019150610e05565b8080600101915050610d7d565b600091505b50919050565b602060405190810160405280600081525090565b60a0604051908101604052806005905b600073ffffffffffffffffffffffffffffffffffffffff16815260200190600190039081610e2f5790505090565b828054600181600116156101000203166002900490600052602060002090601f016020900481019282601f10610e9e57805160ff1916838001178555610ecc565b82800160010185558215610ecc579182015b82811115610ecb578251825591602001919060010190610eb0565b5b509050610ed99190610edd565b5090565b610eff91905b80821115610efb576000816000905550600101610ee3565b5090565b905600a165627a7a7230582031650263e4326a10cef85c5736413b48d47cecbea0005d9cdcc08c04f7fc89ad0029",
  "source": "pragma solidity ^0.4.18;\n\ncontract IndexToken {\n\n\t/*\n\t\tDefine struct to represent index token data.\n\t*/\n\tstruct indextoken {\n\t\tuint id;\t\t\t\t\t// internal id\n\t\tstring HashValue;\t\t// index hash value\n\t}\n\n\t// Global state variables\n\taddress private constant supervisor = 0xdcbe88e1ba58cd7eae1ec9cc9149b5788c7b6485;\n\tmapping(string => indextoken) indextokens;\n\taddress[5] authorizedNodes;\t\t// authorized nodes to interact with ABI, maximum is 5\n\tuint private constant MAX_NODES = 5;\n\n\t// event handle function\n\tevent OnValueChanged(address indexed _from, uint _value);\n\n\t/* \n\t\tfunction: check whether node is authorized by supervisor\n\t*/\n\tfunction isAuthrozied(address recipient) private constant returns (bool) {\n\t\tfor(uint i = 0; i < MAX_NODES; i++) { \n\t\t\t\tif(authorizedNodes[i] == recipient) {\n\t\t\t\t\treturn true;\n\t\t\t\t}\n\t\t\t}\t\n\t\treturn false;\n\t}\n\n\t/* \n\t\tfunction: query token data given index string and return hash data\n\t*/\n\tfunction getIndexToken(string str_index) public constant returns (uint, string) {\n\n\t\t\treturn(indextokens[str_index].id,\n\t\t\t\t\tindextokens[str_index].HashValue );\n\t}\n\n\t/* \n\t\tfunction: query authorized node data\n\t*/\n\tfunction getAuthorizedNodes() public constant returns (address[5]) {\n\t\taddress[5] emptynodes;\n\t\tif( supervisor == msg.sender) {\n\t\t\treturn(authorizedNodes);\n\t\t}\n\t\telse {\n\t\t\treturn(emptynodes);\n\t\t}\n\t}\n\n\n\t/*\n\tFunction: Initilized token data given address.\n\t*/\n\tfunction initIndexToken(address recipient, string str_index) public returns (bool) {\n\t\tif( supervisor == msg.sender) {\n\t\t\t//set id as 1\n\t\t\tindextokens[str_index].id = 0;\n\t\t\tindextokens[str_index].HashValue = '';\n\n\t\t\t// notify OnValueChanged event\n\t\t\tOnValueChanged(recipient, indextokens[str_index].id);\t\n\t\t\treturn true;\n\n\t\t}\n\t\telse {\n\t\t\treturn false;\n\t\t}\n\t}\n\n\t/*\n\tFunction: Add authroized nodes.\n\t*/\t\n\tfunction addAuthorizedNodes(address recipient)  public returns (bool) {\n\t\tif( supervisor == msg.sender) {\n\t\t\t// check whether node has been authorized, avlid duplicated nodes\n\t\t\tif(isAuthrozied(recipient) == true) {\n\t\t\t\treturn false; \n\t\t\t}\n\t\t\t// for each node to find empty slot to add recipient\n\t\t\tfor(uint i = 0; i < MAX_NODES; i++) { \n\t\t\t\t// check if node[i] is empty\n\t\t\t\tif(authorizedNodes[i] != address(0)) {\n\t\t\t\t\t//find next valid one\n\t\t\t\t\tcontinue;\n\t\t\t\t}\n\t\t\t\telse {\n\t\t\t\t\t// add recipient to empty slot\n\t\t\t\t\tauthorizedNodes[i] = recipient;\n\t\t\t\t\treturn true;\n\t\t\t\t}\n\t\t\t}\n\t\t\t// no empty slot for add recipient, return false\n\t\t\treturn false;\n\t\t}\n\t\telse {\n\t\t\treturn false;\n\t\t}\t\t\n\t}\n\n\t/*\n\tFunction: Remove authroized nodes.\n\t*/\t\n\tfunction removeAuthorizedNodes(address recipient)  public returns (bool) {\n\t\tif( supervisor == msg.sender) {\n\t\t\t// for each node to find  recipient to remove\n\t\t\tfor(uint i = 0; i < MAX_NODES; i++) { \n\t\t\t\t// check if node[i] is recipient\n\t\t\t\tif(authorizedNodes[i] != recipient) {\n\t\t\t\t\t//find next valid one\n\t\t\t\t\tcontinue;\n\t\t\t\t}\n\t\t\t\telse {\n\t\t\t\t\t// remove recipient from authorizedNodes\n\t\t\t\t\tauthorizedNodes[i] = address(0);\n\t\t\t\t\treturn true;\n\t\t\t\t}\n\t\t\t}\n\t\t\t// no recipient for remove, return false\n\t\t\treturn false;\n\t\t}\n\t\telse {\n\t\t\treturn false;\n\t\t}\t\n\t}\n\n\t// Set accessright call function\n\tfunction setIndexToken(\taddress recipient, \n\t\t\t\t\t\t\tstring str_index,\n\t\t\t\t\t\t\tstring hashed_index) public returns (bool) {\n\t\tif( supervisor == msg.sender || isAuthrozied(recipient) == true) {\n\t\t\tindextokens[str_index].id += 1;\n\t\t\tindextokens[str_index].HashValue = hashed_index;\n\t\t\tOnValueChanged(recipient, indextokens[str_index].id);\n\t\t\treturn true;\n\t\t}\n\t\telse{\n\t\t\treturn false;\n\t\t}\n\t\t\n\t}\n}\n",
  "sourcePath": "/home/samuel/Desktop/Github/Microservices_dev/Contract_dev/contracts/IndexToken.sol",
  "compiler": {
    "name": "solc",
    "version": "0.4.21+commit.dfe3193c.Emscripten.clang"
  },
  "schemaVersion": "2.0.0",
  "updatedAt": "2019-09-28T21:30:14.083Z"
}